:1000000005308A00DB2D0000FF00030E8301A100F4
:100010000A08A0008A010408A2007708A300780853
:10002000A4007908A5007A08A600831383120B1E8A
:100030001B288B1836288C308400001D21280C19B1
:1000400039288B1E25280B193C28220884002308F8
:10005000F7002408F8002508F9002608FA0020080F
:100060008A00210E8300FF0E7F0E09008A110A12FA
:100070003F288A110A1263288A110A125228461C44
:100080004328861344280613C61C492839088100D2
:100090004B283D0881000B118B168B108B108A1199
:1000A0000A122528461C5928C708031D59288617F7
:1000B0005E2846185E28C708031906178B120B1115
:1000C0008A110A122528861C6E280130C1070318E0
:1000D000C20A0319C30A0319C40A7628FF30C107EC
:1000E000031CC207031CC307031CC4070C118A119D
:1000F0000A12252880308318E806ED01EE01640815
:10010000EC006808EC06630803196A29EB00F700A5
:10011000670803197329EB0203190F29031CCD2863
:100120006808F100F1176908F0006A08EF00EE01B5
:100130000310F10CF00CEF0CEE0CEB0B9728EC1FFE
:10014000A4286D1487296D106B106D16663084001D
:1001500083139C296D12EC1BB7286B1CC228F10C71
:10016000F00CEF0CEE0CF70A03198229C228F11BE0
:10017000C5280310EE0DEF0DF00DF10DF703031977
:100180008229B7286D172F296D136408EC00EC1F26
:10019000CB28F1177B29F1137B296708EB00F700C7
:1001A0006308EB026408F100F1176508F0006608C7
:1001B000EF00EE010310F10CF00CEF0CEE0CEB0B6A
:1001C000D928EC1FE628ED148729ED106B10ED16E9
:1001D0006A30840083139C29ED12EC1BF9286B1CF8
:1001E0000429F10CF00CEF0CEE0CF70A031982292C
:1001F0000429F11B07290310EE0DEF0DF00DF10D91
:10020000F70303198229F928ED172F29ED13680840
:10021000EC00EC1F0D29F1177B29F1137B296808ED
:10022000F100F1176908F0006A08EF00EC1F1C29C3
:10023000F1136D1587296D11EE016B106630840086
:1002400083139C29EC1B45296408EC006B1C2F29A7
:10025000F10CF00CEF0CEE0CF70A03198229EE1FDB
:100260004029EF0A031D4029F00A031D4029F10A25
:10027000031D4029F10CF00CEF0CF70A0319822939
:100280006D1BC428ED1B062964298030F106F11F7F
:100290004D2987296808EC005A296408EC00F10808
:1002A000031D5A29F008031D5A29EF08031D5A2976
:1002B000F7017B29F11B64290310EE0DEF0DF00D02
:1002C000F10DF70B5A298229EC1F6829F1177B29B8
:1002D000F1137B296708F7006808F1006908F0004E
:1002E0006A08EF007B296308F7006408F1006508DD
:1002F000F0006608EF007108F8007008F9006F0858
:10030000FA00BA29F701F801F901FA01BA29EE0158
:10031000EF09F009F109EE09EE0A031D9529EF0A2C
:10032000031D9529F00A0319F10A6D18A328ED1889
:10033000E5286D191B294A290008EF07031CA62987
:10034000F00A031DA629F10A03196B14840300089F
:10035000F007031CAE29F10A03196B14840300088B
:10036000801F803AF10703186B146D1AAA28ED1A42
:10037000EC282229080050080319802ADC005408C0
:100380000319802ADC02031CCA297F30DC0703180A
:10039000802AD0298130DC02031C802A0319802A9C
:1003A0005C08F700F801F901FA01DB015108DA00F5
:1003B000DA175208D9005308D8001930DC00570862
:1003C000D8020318F3290130D9020318F329DA02FD
:1003D0000318F329DB020318F329DB0ADA0AD90A26
:1003E0005708D807252A5608D90203180E2A0130C3
:1003F000DA0203180E2ADB0203180E2ADB0ADA0AD5
:100400005608D9075708D807031C252AD90A031DFF
:10041000252ADA0A031D252ADB0A252A55088038F1
:10042000DA020318242A0130DB020318242ADB0A2B
:1004300055088038DA075608D907031C022ADA0A59
:10044000031D022ADB0A022A7A14DC0B282A332A2B
:100450000310D80DD90DDA0DDB0D0310FA0DF90DCF
:10046000F80DDD0DDF295D1C3B2A0310F80CF90C9B
:10047000FA0CDD0C3E2AF7030319802ADD1B672ADC
:100480000310D80DD90DDA0DDB0D5708D80203186B
:10049000532A0130D9020318532ADA020318532AC7
:1004A000DB02031C762A5608D90203185E2A0130A3
:1004B000DA0203185E2ADB02031C762A550880380C
:1004C000DA020318672A0130DB02031C762AFA0AD3
:1004D000031D762AF90A031D762AF80A031D762AD7
:1004E000F70A0319802AF80CF90CFA0C5108DC0001
:1004F0005508DC06DC1F7E2AF817842AF813842AA4
:10050000F701F801F901FA0108006008E700640842
:10051000E706E71F902A03110310E01B0314C32A08
:100520006008E7006308E8005F08E80203199E2AF4
:10053000E71FC32A0308013A8300C32A6408E800BE
:100540006008E8020319AA2AE71FC32A0308013A30
:100550008300C32A6508E8006108E8020319B62A87
:10056000E71FC32A0308013A8300C32A6608E8008C
:100570006208E8020319C22AE71FC32A0308013AE6
:100580008300C32A031008008E30F7005F08F702CB
:100590006008F9006108F800F917F7080319DB2A69
:1005A0000310F908031DD72AF8080319DB2AF90CF0
:1005B000F80CF70BD02AE01FE22AF809F909F80A2B
:1005C0000319F90A08008E30F7006408F800630880
:1005D000F900FA01F808031DF72A7908F800F90173
:1005E0000830F702F808031DF72AF701FF2A031065
:1005F000F81BFE2AF90DF80DF703F72AF813080087
:100600005F080319702BE70063080319702BE707D5
:100610000318112B7F30E702031C702B0319702B7A
:10062000152B8130E7070318702B6708F700F801D6
:10063000F901FA016008EB00EB176108EA006208B3
:10064000E9001830E700E801691C3E2B6608FA074C
:10065000031C302BF90A031D302BF80A0319E81785
:100660006508F907031C372BF80A0319E817640813
:10067000E100E1176108F8070318E817E80DF80C26
:10068000F90CFA0CEB0CEA0CE90C0310E70B232B2A
:100690000130F7070318702BF81B552BEB0DFA0DE3
:1006A000F90DF80DF7030319702BEB1F662BFA0AEF
:1006B000031D662BF90A031D662BF80A031D662B22
:1006C000F80CF90CFA0CF70A0319702B6008E80013
:1006D0006408E806E81F6E2BF817742BF813742BC8
:1006E000F701F801F901FA0108005E105308D7007C
:1006F0005208D6005108D5005008D4005308E20033
:100700005208E1005108E0005008DF00E601E50171
:10071000E401E3018522031C912B5E145508803A05
:10072000D5005708E2005608E1005508E0005408DB
:10073000DF00E601E501E4018E30E30085220318C5
:10074000A32B031DBA2B5708E2005608E1005508F9
:10075000E0005408DF00C4227908E4007808E300D0
:10076000E3227A08DB007908DA007808D9007708F4
:10077000D800772C5708E2005608E1005508E00041
:100780005408DF008030E6009630E5001830E400C1
:100790009630E3008522031C6F2C5708E2005608B0
:1007A000E1005508E0005408DF00E601E501E4013E
:1007B0007030E30000237A08E2007908E10078084D
:1007C000E0007708DF00C4227908DD007808DC004B
:1007D0005708E2005608E1005508E0005408DF0021
:1007E000E601E501E4017030E30000237A08E2004D
:1007F0007908E1007808E0007708DF005D08E40090
:100800005C08E300E32283146208E6006108E50067
:100810006008E4005F08E3007A08EA007908E9006C
:100820007808E8007708E7007A20E201E101E001BA
:100830008E30DF007A08E6007908E5007808E400E9
:100840007708E30000237A08D7007908D6007808F3
:10085000D5007708D4005D08E4005C08E300E322DB
:10086000E201E101E0018E30DF007A08E60079085C
:10087000E5007808E4007708E30000237A08DB004D
:100880007908DA007808D9007708D8005708E2001C
:100890005608E1005508E0005408DF00C42279083A
:1008A000E4007808E300E32283105B08E6005A08BE
:1008B000E5005908E4005808E3007A08EA007908DE
:1008C000E9007808E8007708E7007A207A08DB007A
:1008D0007908DA007808D9007708D800772C57080B
:1008E000DB005608DA005508D9005408D80057082C
:1008F000E2005608E1005508E0005408DF00C42279
:100900007908E4007808E300E32283145708E6003E
:100910005608E5005508E4005408E3007A08EA00A8
:100920007908E9007808E8007708E7007A207A0873
:10093000D7007908D6007808D5007708D4005E1C67
:10094000A42C5908803AD9005708E2005608E10063
:100950005508E0005408DF00E601E501E401E30189
:1009600085220319CC2C5E1CCC2C83145B08E6007A
:100970005A08E5005908E4005808E300EA01E901D3
:10098000E8017F30E7007A207A08DB007908DA0096
:100990007808D9007708D8005308E2005208E1002F
:1009A0005108E0005008DF00E601E501E401E30141
:1009B0008522031DDF2CDB01DA01D901D80158089B
:1009C000F7005908F8005A08F9005B08FA00080017
:1009D0004C08B63CCC00FA014D08D000CD170310EE
:1009E000CD0CCE0CCF0CFA0CF90CF80CF70CCC0B90
:1009F000EF2CD01F062DF709F809F909FA09F70AB3
:100A00000319F80A0319F90A0319FA0A08005430FD
:100A100084008313000803191A2D0630F800F7012B
:100A2000F70B102DF80B0F2D7B30F700F70B162D61
:100A3000800B0D2D08000330D502031C292D5530E5
:100A40008400831300080319292D272D272D800BDF
:100A5000262D08004A08880087110712871687127A
:100A60000130D40007250230CB00F930D5001B251A
:100A7000CB0B352D080083168801871207128711CA
:100A800038308312CA002A250C30CA002A250130CA
:100A9000CA002A258030CA002A258A110A12D82EB7
:100AA0008318552D5630840083135108550680391C
:100AB000DB00D11F662DCE09CF09D009D109CE0A9E
:100AC0000319CF0A0319D00A0319D10AD51F732DB0
:100AD000D209D309D409D509D20A0319D30A0319B3
:100AE000D40A0319D50AF701F801F901FA01D60170
:100AF000D701D801D90155085404530452040319ED
:100B0000B12D2030DA000310CE0DCF0DD00DD10D58
:100B1000D60DD70DD80DD90D55085902031D9A2DA4
:100B200054085802031D9A2D53085702031D9A2D8D
:100B300052085602031CAB2D5208D6025308031C60
:100B4000530FD7025408031C540FD8025508031C36
:100B5000550FD9020314F70DF80DF90DFA0DDA0B44
:100B6000832DDB1FBE2DF709F809F909FA09F70AE9
:100B70000319F80A0319F90A0319FA0A560880003A
:100B8000840A57088000840A58088000840A59089B
:100B900080000800530888008715071287168712FF
:100BA0000130D40007250230D400F930D5001B25D0
:100BB000D40BD52D080003081F398300B401B301FD
:100BC0002030B2008230B100B801B7012030B60049
:100BD0008130B50083141730E600B730E50051309E
:100BE000E4008230E3003408EA003308E900320808
:100BF000E8003108E7007A207A08CD007908CC00B7
:100C00007808CB007708CA007A08D3007908D200A8
:100C10007808D1007708D0001730D700B730D60059
:100C20005130D5007A30D400BB217A08CD00790844
:100C3000CC007808CB007708CA007A08D30079087E
:100C4000D2007808D1007708D00075237A08CF0049
:100C50007908CE007808CD007708CC00E8247A081F
:100C6000CD007908CC007808CB0001307702B900BC
:100C70007808BA000030031C0130BA027908BB00C2
:100C80000030031C0130BB027A08BC000030031C9A
:100C90000130BC02CB010408CA004B10831B4B146B
:100CA00083141730E600B730E5005130E40082309D
:100CB000E3003808EA003708E9003608E80035089C
:100CC000E7007A204A08840083134B1883177A08B8
:100CD000CF007908CE007808CD007708CC007A08DC
:100CE000D3007908D2007808D1007708D0001730F7
:100CF000D700B730D6005130D5007A30D400BB21B0
:100D00007A08CF007908CE007808CD007708CC00AB
:100D10007A08D3007908D2007808D1007708D0008B
:100D200075237A08CF007908CE007808CD007708BF
:100D3000CC00E82401307702BD007808BE00003006
:100D4000031C0130BE027908BF000030031C0130D3
:100D5000BF027A08C0000030031C0130C002C40189
:100D6000C301C201C101C5014614C614C701C801AF
:100D7000FF30C90083161F149F141F159F110730E1
:100D80009C00831330308312A7003130A80032302A
:100D9000A9003330AA003430AB003530AC00363017
:100DA000AD003730AE003830AF003930B0003B2DE9
:100DB0000130CA002A258030CA002A258310440841
:100DC000D1004308D0004208CF004108CE00D50131
:100DD000D401D3010A30D20050257A08CD00790819
:100DE000CC007808CB007708CA002730770784004A
:100DF0008313781883170008CE00D300CA25831404
:100E00004A30840083134408D1004308D0004208CC
:100E1000CF004108CE00D501D401D3010A30D20061
:100E200050254D08D1004C08D0004B08CF004A088F
:100E3000CE0027304A07840083134B18831700081D
:100E4000D200D300CA25831607158614061486130C
:100E500006138612850183128B100B16831601135D
:100E600083124915490883168700831297010430BD
:100E700097008530900083160C150108C03907389B
:100E80008100C830831281008B16C0308B04472F3D
:020E90006300FD
:02400E00323F3F
:00000001FF
;PIC16F877A
;CRC=A283  CREATED="27-Mar-20 02:23"
