:1000000006308A009D2E0000FF00030E8301A10030
:100010000A08A0008A010408A2007708A300780853
:10002000A4007908A5007A08A600831383120B1E8A
:100030001B288B1836288C308400001D21280C19B1
:1000400039288B1E25280B193C28220884002308F8
:10005000F7002408F8002508F9002608FA0020080F
:100060008A00210E8300FF0E7F0E09008A110A12FA
:100070003F288A110A1273288A110A125928481334
:1000800048088316870083120713C813480883168D
:10009000870083128713C61C502839088100522814
:1000A0003D0881000B118B168B108B108A110A12E0
:1000B0002528461C642846196428481348088316D6
:1000C0008700831207176E2846186E2846196E2877
:1000D000C813480883168700831287178B120B11E9
:1000E0008A110A122528071C7E280130C10703182F
:1000F000C20A0319C30A0319C40A8628FF30C107BC
:10010000031CC207031CC307031CC4070C110C11FA
:100110008A110A12252880308318E706EC01ED01C8
:100120006308EB006708EB06620803197B29EA0005
:10013000F700660803198429EA0203192029031C21
:10014000DE286708F000F0176808EF006908EE0085
:10015000ED010310F00CEF0CEE0CED0CEA0BA828EF
:10016000EB1FB5286C1498296C106A106C1665305A
:1001700084008313AD296C12EB1BC8286A1CD3289A
:10018000F00CEF0CEE0CED0CF70A03199329D328B1
:10019000F01BD6280310ED0DEE0DEF0DF00DF7035B
:1001A00003199329C8286C1740296C136308EB00C6
:1001B000EB1FDC28F0178C29F0138C296608EA0065
:1001C000F7006208EA026308F000F0176408EF0025
:1001D0006508EE00ED010310F00CEF0CEE0CED0CD9
:1001E000EA0BEA28EB1FF728EC149829EC106A10A8
:1001F000EC16693084008313AD29EC12EB1B0A293D
:100200006A1C1529F00CEF0CEE0CED0CF70A031923
:1002100093291529F01B18290310ED0DEE0DEF0D94
:10022000F00DF703031993290A29EC174029EC1361
:100230006708EB00EB1F1E29F0178C29F0138C299F
:100240006708F000F0176808EF006908EE00EB1F80
:100250002D29F0136C1598296C11ED016A10653089
:1002600084008313AD29EB1B56296308EB006A1C3D
:100270004029F00CEF0CEE0CED0CF70A0319932952
:10028000ED1F5129EE0A031D5129EF0A031D5129C3
:10029000F00A031D5129F00CEF0CEE0CF70A0319BC
:1002A00093296C1BD528EC1B172975298030F00683
:1002B000F01F5E2998296708EB006B296308EB00A3
:1002C000F008031D6B29EF08031D6B29EE08031DC1
:1002D0006B29F7018C29F01B75290310ED0DEE0D2C
:1002E000EF0DF00DF70B6B299329EB1F7929F01710
:1002F0008C29F0138C296608F7006708F00068085D
:10030000EF006908EE008C296208F7006308F0002E
:100310006408EF006508EE007008F8006F08F90047
:100320006E08FA00CB29F701F801F901FA01CB298F
:10033000ED01EE09EF09F009ED09ED0A031DA6290B
:10034000EE0A031DA629EF0A0319F00A6C18B42857
:10035000EC18F6286C192C295B290008EE07031C01
:10036000B729EF0A031DB729F00A03196A14840399
:100370000008EF07031CBF29F00A03196A1484035D
:100380000008801F803AF00703186A146C1ABB2813
:10039000EC1AFD28332908004F080319912ADB00C5
:1003A00053080319912ADB02031CDB297F30DB078A
:1003B0000318912AE1298130DB02031C912A0319D9
:1003C000912A5B08F700F801F901FA01DA015008F7
:1003D000D900D9175108D8005208D7001930DB00CE
:1003E0005608D7020318042A0130D8020318042A39
:1003F000D9020318042ADA020318042ADA0AD90AED
:10040000D80A5608D707362A5508D80203181F2AD3
:100410000130D90203181F2ADA0203181F2ADA0A48
:10042000D90A5508D8075608D707031C362AD80A10
:10043000031D362AD90A031D362ADA0A362A540839
:100440008038D9020318352A0130DA020318352A18
:10045000DA0A54088038D9075508D807031C132A2C
:10046000D90A031D132ADA0A132A7A14DB0B392A54
:10047000442A0310D70DD80DD90DDA0D0310FA0D4B
:10048000F90DF80DDC0DF0295C1C4C2A0310F80C5A
:10049000F90CFA0CDC0C4F2AF7030319912ADC1B28
:1004A000782A0310D70DD80DD90DDA0D5608D702CA
:1004B0000318642A0130D8020318642AD9020318E9
:1004C000642ADA02031C872A5508D80203186F2A07
:1004D0000130D90203186F2ADA02031C872A540854
:1004E0008038D9020318782A0130DA02031C872ADF
:1004F000FA0A031D872AF90A031D872AF80A031D31
:10050000872AF70A0319912AF80CF90CFA0C5008FB
:10051000DB005408DB06DB1F8F2AF817952AF81337
:10052000952AF701F801F901FA0108005F08E600D1
:100530006308E606E61FA12A03110310DF1B03145C
:10054000D42A5F08E6006208E7005E08E7020319A4
:10055000AF2AE61FD42A0308013A8300D42A63088D
:10056000E7005F08E7020319BB2AE61FD42A030845
:10057000013A8300D42A6408E7006008E7020319FF
:10058000C72AE61FD42A0308013A8300D42A650843
:10059000E7006108E7020319D32AE61FD42A0308FB
:1005A000013A8300D42A031008008E30F7005E0859
:1005B000F7025F08F9006008F800F917F708031957
:1005C000EC2A0310F908031DE82AF8080319EC2A9D
:1005D000F90CF80CF70BE12ADF1FF32AF809F909E7
:1005E000F80A0319F90A08008E30F7006308F800CA
:1005F0006208F900FA01F808031D082B7908F800D1
:10060000F9010830F702F808031D082BF701102B39
:100610000310F81B0F2BF90DF80DF703082BF81337
:1006200008005E080319812BE60062080319812B7C
:10063000E6070318222B7F30E602031C812B0319E7
:10064000812B262B8130E6070318812B6608F700E3
:10065000F801F901FA015F08EA00EA176008E90009
:100660006108E8001830E600E701681C4F2B6508B8
:10067000FA07031C412BF90A031D412BF80A031941
:10068000E7176408F907031C482BF80A0319E71752
:100690006308E000E0176008F8070318E717E70DA4
:1006A000F80CF90CFA0CEA0CE90CE80C0310E60B58
:1006B000342B0130F7070318812BF81B662BEA0D4A
:1006C000FA0DF90DF80DF7030319812BEA1F772BAB
:1006D000FA0A031D772BF90A031D772BF80A031D6D
:1006E000772BF80CF90CFA0CF70A0319812B5F0829
:1006F000E7006308E706E71F7F2BF817852BF81341
:10070000852BF701F801F901FA0108005D10520884
:10071000D6005108D5005008D4004F08D300520825
:10072000E1005108E0005008DF004F08DE00E5015D
:10073000E401E301E2019622031CA22B5D1454089C
:10074000803AD4005608E1005508E0005408DF0064
:100750005308DE00E501E401E3018E30E200962259
:100760000318B42B031DCB2B5608E1005508E000FD
:100770005408DF005308DE00D5227908E30078082A
:10078000E200F4227A08DA007908D9007808D80063
:100790007708D700882C5608E1005508E000540877
:1007A000DF005308DE008030E5009630E4001830AA
:1007B000E3009630E2009622031C802C5608E100EC
:1007C0005508E0005408DF005308DE00E501E401AD
:1007D000E3017030E20011237A08E1007908E000BB
:1007E0007808DF007708DE00D5227908DC00780879
:1007F000DB005608E1005508E0005408DF0053080C
:10080000DE00E501E401E3017030E20011237A0823
:10081000E1007908E0007808DF007708DE005C0876
:10082000E3005B08E200F42283146108E50060083D
:10083000E4005F08E3005E08E2007A08E900790856
:10084000E8007808E7007708E6008B20E101E00186
:10085000DF018E30DE007A08E5007908E4007808D0
:10086000E3007708E20011237A08D6007908D50062
:100870007808D4007708D3005C08E3005B08E20046
:10088000F422E101E001DF018E30DE007A08E500AC
:100890007908E4007808E3007708E20011237A0879
:1008A000DA007908D9007808D8007708D700560808
:1008B000E1005508E0005408DF005308DE00D522AF
:1008C0007908E3007808E200F42283105A08E50072
:1008D0005908E4005808E3005708E2007A08E900E4
:1008E0007908E8007808E7007708E6008B207A08A6
:1008F000DA007908D9007808D8007708D700882C62
:100900005608DA005508D9005408D8005308D70013
:100910005608E1005508E0005408DF005308DE00E7
:10092000D5227908E3007808E200F42283145608FF
:10093000E5005508E4005408E3005308E2007A0893
:10094000E9007908E8007808E7007708E6008B20DE
:100950007A08D6007908D5007808D4007708D30043
:100960005D1CB52C5808803AD8005608E10055089F
:10097000E0005408DF005308DE00E501E401E30174
:10098000E20196220319DD2C5D1CDD2C83145A082C
:10099000E5005908E4005808E3005708E200E901BF
:1009A000E801E7017F30E6008B207A08DA00790859
:1009B000D9007808D8007708D7005208E10051081C
:1009C000E0005008DF004F08DE00E501E401E3012C
:1009D000E2019622031DF02CDA01D901D801D701DA
:1009E0005708F7005808F8005908F9005A08FA00A3
:1009F00008004B08B63CCB00FA014C08CF00CC17DE
:100A00000310CC0CCD0CCE0CFA0CF90CF80CF70C36
:100A1000CB0B002DCF1F172DF709F809F909FA099B
:100A2000F70A0319F80A0319F90A0319FA0A080060
:100A30004908880087110712871687120130CA00FB
:100A40004A308400831300080319332D0630F80060
:100A5000F701F70B292DF80B282D7B30F700F70B4A
:100A60002F2D800B262D0230CA00F930CB00033029
:100A7000CB02031C452D4B3084008313000803195F
:100A8000452D432D432D800B422DCA0B352D0800DB
:100A90008316880187120712871138308312C90024
:100AA00018250C30C90018250130C90018258030E0
:100AB000C90018258A110A12992FC81048088316F0
:100AC000870083128714C81348088316870083128F
:100AD0008713461446110800C8104808831687007B
:100AE000831287104615481348088316870083121F
:100AF0000713C8134808831687008312871308005A
:100B0000C8104808831687008312871448134808C2
:100B10008316870083120713461146100800C41B72
:100B2000A12DC408031DA32DC308031DA32D420836
:100B3000013C031CA32D031DA12D4108903C031C67
:100B4000A32D5D258F2D6C25C41BA82D6C25A42DF0
:100B5000C41FC32D4408FE3C0318C52DFF3A031DD6
:100B6000C32D4308FE3C0318C52DFF3A031DC32DBA
:100B70004208FD3C0318C52DFF3A031DC32D410853
:100B80006F3C0318C52D8025A82D6C25C41BD52DC1
:100B9000C408031DD72DC308031DD72DC208031D8C
:100BA000D72D4108003C031CD72D6C25C62DC41B36
:100BB000E92DC408031DEB2DC308031DEB2D4208CE
:100BC000033C031CEB2D031DE92D4108203C031CB5
:100BD000EB2D5D25D72D6C25C41BF02D6C25EC2D40
:100BE000C41F0B2E4408FE3C03180D2EFF3A031DB4
:100BF0000B2E4308FE3C03180D2EFF3A031D0B2E4F
:100C00004208FB3C03180D2EFF3A031D0B2E410832
:100C1000DF3C03180D2E8025F02D6C25C41B1D2EE6
:100C2000C408031D1F2EC308031D1F2EC208031D69
:100C30001F2E4108003C031C1F2E6C250E2EC41BCA
:100C4000312EC408031D332EC308031D332E420862
:100C5000043C031C332E031D312E4108B03C031C01
:100C6000332E5D251F2E6C25C6108A110A12BD2F4A
:100C7000C41B4D2EC408031D4B2EC308031D4B2E51
:100C80004208003C03184D2EFF3A031D4B2E41082D
:100C90008F3C03184D2E6C25382EC41F682E440837
:100CA000FE3C03186A2EFF3A031D682E4308FE3CE3
:100CB00003186A2EFF3A031D682E4208FB3C0318F6
:100CC0006A2EFF3A031D682E4108DF3C03186A2E86
:100CD00080254D2E6C25C41F852E4408FF3C031C27
:100CE000852E031D832E4308FF3C031C852E031D08
:100CF000832E4208FE3C031C852E031D832E4108D3
:100D0000703C031C852E6C256B2EC41B972EC408CB
:100D1000031D992EC308031D992E4208033C031C92
:100D2000992E031D972E4108203C031C992E5D250A
:100D3000852E6C258A110A12BE2F03081F398300E5
:100D4000B401B301B2017F30B100B801B701403046
:100D5000B6008130B50083141730E500B730E400E9
:100D60005130E3008230E2003408E9003308E80043
:100D70003208E7003108E6008B207A08CC007908B9
:100D8000CB007808CA007708C9007A08D200790831
:100D9000D1007808D0007708CF001730D600B730E0
:100DA000D5005130D4007A30D300CC217A08CC0061
:100DB0007908CB007808CA007708C9007A08D20001
:100DC0007908D1007808D0007708CF0086237A0808
:100DD000CE007908CD007808CC007708CB00F92444
:100DE0007A08CC007908CB007808CA000130770275
:100DF000B9007808BA000030031C0130BA02790843
:100E0000BB000030031C0130BB027A08BC0000307C
:100E1000031C0130BC02CA010408C9004A10831B2C
:100E20004A1483141730E500B730E4005130E30072
:100E30008230E2003808E9003708E8003608E700A9
:100E40003508E6008B204908840083134A1883176D
:100E50007A08CE007908CD007808CC007708CB005E
:100E60007A08D2007908D1007808D0007708CF003E
:100E70001730D600B730D5005130D4007A30D300C7
:100E8000CC217A08CE007908CD007808CC0077080C
:100E9000CB007A08D2007908D1007808D000770812
:100EA000CF0086237A08CE007908CD007808CC00E0
:100EB0007708CB00F92401307702BD007808BE0026
:100EC0000030031C0130BE027908BF000030031C53
:100ED0000130BF027A08C0000030031C0130C0029C
:100EE000C401C301C201C101C5014614C6144611A3
:100EF000C701FF30C80083161F149F141F159F11D0
:100F000007309C00831330308312A7003130A800D3
:100F10003230A9003330AA003430AB003530AC0099
:100F20003630AD003730AE003830AF003930B00069
:100F3000482D831607150714061487108713071307
:100F40000613850183128B100B168316011383126F
:100F500048154808831687008312970104309700CC
:100F60008530900083160C150108C03907388100C0
:100F700083128B16C0308B048F2D382EBD2F63004B
:02400E00323F3F
:00000001FF
;PIC16F877A
;CRC=34F1  CREATED="27-Mar-20 22:25"
