:1000000001308A001C290000FF00030E8301A100BB
:100010000A08A0008A010408A2007708A300780853
:10002000A4007908A5007A08A600831383128C30F7
:100030008400001D1D280C192E2822088400230886
:10004000F7002408F8002508F9002608FA0020081F
:100050008A00210E8300FF0E7F0E09008A110A120A
:100060003128861C3C280130B1070318B20A031955
:10007000B30A0319B40A4428FF30B107031CB207BE
:10008000031CB307031CB4070C118A110A121D28A4
:10009000413084008313000803195B280630F80000
:1000A000F701F70B5128F80B50287B30F700F70BBE
:1000B0005728800B4E2808000330C202031C6A2810
:1000C000423084008313000803196A2868286828CE
:1000D000800B6728080037088800871107128716E9
:1000E00087120130C10048200230B800F930C20048
:1000F0005C20B80B76280800831688018712071247
:10010000871138308312B7006B200C30B7006B209A
:100110000130B7006B208030B7006B208A110A12C3
:100120004429831896284330840083133E084206EE
:100130008039C800BE1FA728BB09BC09BD09BE097C
:10014000BB0A0319BC0A0319BD0A0319BE0AC21F60
:10015000B428BF09C009C109C209BF0A0319C00AEE
:100160000319C10A0319C20AF701F801F901FA01DA
:10017000C301C401C501C6014208410440043F0453
:100180000319F2282030C7000310BB0DBC0DBD0DB4
:10019000BE0DC30DC40DC50DC60D42084602031D9C
:1001A000DB2841084502031DDB2840084402031DEB
:1001B000DB283F084302031CEC283F08C302400829
:1001C000031C400FC4024108031C410FC502420832
:1001D000031C420FC6020314F70DF80DF90DFA0DBA
:1001E000C70BC428C81FFF28F709F809F909FA093D
:1001F000F70A0319F80A0319F90A0319FA0A430856
:100200008000840A44088000840A45088000840A2B
:1002100046088000080040088800871507128716E6
:1002200087120130C10048200230C100F930C200FD
:100230005C20C10B1629080003081F398300B40194
:10024000B301B201B1013514FF30B60083161F149B
:100250009F141F159F1107309C00831330308312A9
:10026000A7003130A8003230A9003330AA00343062
:10027000AB003530AC003630AD003730AE00383032
:10028000AF003930B0007C280130B7006B208030DF
:10029000B7006B2083103408BE003308BD0032085D
:1002A000BC003108BB00C201C101C0010A30BF005F
:1002B00091207A08BA007908B9007808B800770860
:1002C000B700273077078400831378188317000856
:1002D000BB00C0000B218314373084008313340823
:1002E000BE003308BD003208BC003108BB00C201AB
:1002F000C101C0010A30BF0091203A08BE00390890
:10030000BD003808BC003708BB0027303707840021
:100310008313381883170008BF00C0000B21831611
:100320000715861406148613061386128501831298
:100330008B100B168316011383123615360883169D
:100340008700831297010430970085309000831650
:100350000C15C03083128B04B41BBB29B408031DD9
:10036000BE29B308031DBE29B208031DBE293108EA
:10037000313C031CBE29FF308500AC298501BF2913
:02038000630018
:02400E00323F3F
:00000001FF
;PIC16F877A
;CRC=8B11  CREATED="26-Mar-20 11:18"
