:1000000000308A00BB280000E432ED37203663322E
:100010000000333084008313000803191C280630C5
:10002000F800F701F70B1228F80B11287B30F700C6
:10003000F70B1828800B0F2808000330B402031CAC
:100040002B28343084008313000803192B28292817
:100050002928800B282808002F08880087110712FC
:10006000871687120130B30009200230B000F93042
:10007000B4001D20B00B37280800831688018712B2
:100080000712871138308312AF002C200C30AF00DC
:100090002C200130AF002C208030AF002C208A11A2
:1000A0000A12E1283208880087150712871687127E
:1000B0000130B30009200230B300F930B4001D2034
:1000C000B30B5D2808000B08AF008B1383160317D2
:1000D0008C170C140000000083120313AF1B8B1746
:1000E00003170C087F390319B7280313AF00031750
:1000F0000D080313B00003170F080313B1002F08F6
:10010000B2005220300803178D0003133108031783
:100110008F0003130B08B2008B13831603178C1781
:100120000C140000000083120313B21B8B1703177B
:100130000C0D0E0D7F390319B7280313AF000317F9
:100140000D080313B00003170F080313B1002F08A5
:10015000B2005220300803178D0003133108031733
:100160008F008D0A03198F0A0313632803170313E3
:100170008A110A12EE2803081F398300AD01AC0171
:10018000AB01AA012E1483161F149F141F159F1173
:1001900007309C00831330308312A0003130A1005F
:1001A0003230A2003330A3003430A4003530A50033
:1001B0003630A6003730A7003830A8003930A90003
:1001C0003D288316881080308312AF002C20043025
:1001D00003178D0000308F00031363288316E32874
:0201E0006300BA
:02400E00323F3F
:00000001FF
;PIC16F877A
;CRC=3AA6  CREATED="25-Mar-20 22:51"
