:1000000005308A00B82D0000FF00030E8301A10017
:100010000A08A0008A010408A2007708A300780853
:10002000A4007908A5007A08A600831383120B1E8A
:100030001B288B1836288C308400001C21280C18B3
:1000400039288B1E25280B193C28220884002308F8
:10005000F7002408F8002508F9002608FA0020080F
:100060008A00210E8300FF0E7F0E09008A110A12FA
:100070003F288A110A12092D8A110A1249280713EA
:100080002C0881000B118B168B108B108A110A1211
:10009000252807178B120B118A110A122528803088
:1000A000831C55288316A10683128316A601A70177
:1000B0007C08A5002108A5067B0803194329A40094
:1000C000F700200803194C29A4020319E828031C8F
:1000D000A6282108AA00AA172208A9002308A80018
:1000E000A7010310AA0CA90CA80CA70CA40B70283C
:1000F000A51F7D28261460292610241026167E3080
:100100008400831375292612A51B9028241C9B2884
:10011000AA0CA90CA80CA70CF70A03195B299B28A9
:10012000AA1B9E280310A70DA80DA90DAA0DF70361
:1001300003195B2990282617082926137C08A50097
:10014000A51FA428AA175429AA1354292008A400DB
:10015000F7007B08A4027C08AA00AA177D08A90062
:100160007E08A800A7010310AA0CA90CA80CA70CD4
:10017000A40BB228A51FBF28A6146029A61024101E
:10018000A616A330840083137529A612A51BD228B6
:10019000241CDD28AA0CA90CA80CA70CF70A03192B
:1001A0005B29DD28AA1BE0280310A70DA80DA90DC7
:1001B000AA0DF70303195B29D228A6170829A6134D
:1001C0002108A500A51FE628AA175429AA13542917
:1001D0002108AA00AA172208A9002308A800A51F21
:1001E000F528AA13261560292611A70124107E30B0
:1001F000840083137529A51B1E297C08A500241CD7
:100200000829AA0CA90CA80CA70CF70A03195B294A
:10021000A71F1929A80A031D1929A90A031D1929AD
:10022000AA0A031D1929AA0CA90CA80CF70A03197C
:100230005B29261B9D28A61BDF283D298030AA06A6
:10024000AA1F262960292108A50033297C08A500BA
:10025000AA08031D3329A908031D3329A808031D73
:100260003329F7015429AA1B3D290310A70DA80D16
:10027000A90DAA0DF70B33295B29A51F4129AA1740
:100280005429AA1354292008F7002108AA0022089B
:10029000A9002308A80054297B08F7007C08AA00BD
:1002A0007D08A9007E08A8002A08F8002908F9009E
:1002B0002808FA009329F701F801F901FA019329B6
:1002C000A701A809A909AA09A709A70A031D6E2958
:1002D000A80A031D6E29A90A0319AA0A26187C2850
:1002E000A618BE282619F42823290008A807031CED
:1002F0007F29A90A031D7F29AA0A0319241484034C
:100300000008A907031C8729AA0A031924148403D7
:100310000008801F803AAA0703182414261A83288D
:10032000A61AC528FB28831208005D0803195A2A5B
:10033000E900610803195A2AE902031CA4297F3045
:10034000E90703185A2AAA298130E902031C5A2A0C
:1003500003195A2A6908F700F801F901FA01E801BE
:100360005E08E700E7175F08E6006008E50019305F
:10037000E9006408E5020318CD290130E6020318FC
:10038000CD29E7020318CD29E8020318CD29E80A90
:10039000E70AE60A6408E507FF296308E60203188E
:1003A000E8290130E7020318E829E8020318E829E0
:1003B000E80AE70A6308E6076408E507031CFF2963
:1003C000E60A031DFF29E70A031DFF29E80AFF29A2
:1003D00062088038E7020318FE290130E80203189A
:1003E000FE29E80A62088038E7076308E607031C6D
:1003F000DC29E70A031DDC29E80ADC297A14E90B69
:10040000022A0D2A0310E50DE60DE70DE80D031095
:10041000FA0DF90DF80DEA0DB9296A1C152A031019
:10042000F80CF90CFA0CEA0C182AF70303195A2AEB
:10043000EA1B412A0310E50DE60DE70DE80D6408FF
:10044000E50203182D2A0130E60203182D2AE702DF
:1004500003182D2AE802031C502A6308E602031839
:10046000382A0130E7020318382AE802031C502A10
:1004700062088038E7020318412A0130E802031CB1
:10048000502AFA0A031D502AF90A031D502AF80AB5
:10049000031D502AF70A03195A2AF80CF90CFA0C12
:1004A0005E08E9006208E906E91F582AF8175E2A83
:1004B000F8135E2AF701F801F901FA01080074083F
:1004C0008316A0007C08A006A01F6B2A031103104E
:1004D000F41B03149E2A7408A0007B08A100730873
:1004E000A1020319792AA01F9E2A0308013A83005A
:1004F0009E2A7C08A1007408A1020319852AA01F66
:100500009E2A0308013A83009E2A7D08A1007508EF
:10051000A1020319912AA01F9E2A0308013A830011
:100520009E2A7E08A1007608A10203199D2AA01F19
:100530009E2A0308013A83009E2A031083120800B2
:100540008E30F7006C08F7026D08F9006E08F800AD
:10055000F917F7080319B72A0310F908031DB32A7E
:10056000F8080319B72AF90CF80CF70BAC2AED1FA1
:10057000BE2AF809F909F80A0319F90A08008E30A9
:10058000F7007C08F8007B08F900FA01F808031D61
:10059000D32A7908F800F9010830F702F808031D9A
:1005A000D32AF701DB2A0310F81BDA2AF90DF80D1C
:1005B000F703D32AF81308006C080319682B831675
:1005C000A0007008031DE62A8312682BA0070318F9
:1005D000F42A7F30A0020318EF2A8312682B031D30
:1005E000F32A8312682BFA2A8130A007031CFA2A07
:1005F0008312682B2008F700F801F901FA01831231
:100600006D088316A400A41783126E088316A30036
:1006100083126F088316A2001830A000A101221CCB
:100620002E2B7308FA07031C1B2BF90A031D1B2B27
:10063000F80A0319A1177208F907031C222BF80AFC
:100640000319A11771088312EE00EE176E08F80760
:10065000031C2D2B8316A11783128316A10DF80CF2
:10066000F90CFA0CA40CA30CA20C0310A00B0E2B7B
:100670000130F707031C3E2B8312682BF81B482B15
:10068000A40DFA0DF90DF80DF70B482B8312682B0A
:10069000A41F5B2BFA0A031D5B2BF90A031D5B2BBE
:1006A000F80A031D5B2BF80CF90CFA0CF70A031D72
:1006B0005B2B8312682B83126D088316A1007108CF
:1006C000A106A11F652BF8176D2BF8136D2B831254
:1006D000F701F801F901FA018316831208006B1083
:1006E0006008E4005F08E3005E08E2005D08E100E6
:1006F0006008F6005F08F5005E08F4005D08F3008E
:10070000FE01FD01FC01FB015F22031C8B2B6B141E
:100710006208803AE2006408F6006308F5006208A7
:10072000F4006108F300FE01FD01FC018E30FB00C6
:100730005F2203189D2B031DB42B6408EF00630890
:10074000EE006208ED006108EC00A0227908FC00D0
:100750007808FB00BF227A08E8007908E7007808EB
:10076000E6007708E500752C6408F6006308F500DC
:100770006208F4006108F3008030FE009630FD004E
:100780001830FC009630FB005F22031C6D2C6408BF
:10079000EF006308EE006208ED006108EC00F30171
:1007A000F201F1017030F000DC227A08EF007908E4
:1007B000EE007808ED007708EC00A0227908EA0046
:1007C0007808E9006408EF006308EE006208ED00B5
:1007D0006108EC00F301F201F1017030F000DC225D
:1007E0007A08EF007908EE007808ED007708EC0051
:1007F0006A08FC006908FB00BF2283146F08FE0032
:100800006E08FD006D08FC006C08FB007A0883167A
:10081000A3007908A2007808A1007708A00083123D
:100820004F20EF01EE01ED018E30EC007A08F3006D
:100830007908F2007808F1007708F000DC227A08E5
:10084000E4007908E3007808E2007708E1006A082C
:10085000FC006908FB00BF22EF01EE01ED018E30C4
:10086000EC007A08F3007908F2007808F1007708C4
:10087000F000DC227A08E8007908E7007808E60052
:100880007708E5006408EF006308EE006208ED00F9
:100890006108EC00A0227908FC007808FB00BF2268
:1008A00083106808FE006708FD006608FC00650804
:1008B000FB007A088316A3007908A2007808A1003B
:1008C0007708A00083124F207A08E8007908E70033
:1008D0007808E6007708E500752C6408E8006308EE
:1008E000E7006208E6006108E5006408EF006308BD
:1008F000EE006208ED006108EC00A0227908FC001F
:100900007808FB00BF2283146408FE006308FD0022
:100910006208FC006108FB007A088316A3007908CE
:10092000A2007808A1007708A00083124F207A085F
:10093000E4007908E3007808E2007708E1006B1C26
:10094000A42C6608803AE6006408F6006308F50007
:100950006208F4006108F300FE01FD01FC01FB01E7
:100960005F220319CE2C6B1CCE2C83146808FE006A
:100970006708FD006608FC006508FB008316A301FC
:10098000A201A1017F30A00083124F207A08E80065
:100990007908E7007808E6007708E5006008F600C7
:1009A0005F08F5005E08F4005D08F300FE01FD013C
:1009B000FC01FB015F22031DE12CE801E701E601D8
:1009C000E5016508F7006608F8006708F90068089F
:1009D000FA0008005908B63CD900FA015A08DD00AF
:1009E000DA170310DA0CDB0CDC0CFA0CF90CF80C3F
:1009F000F70CD90BF12CDD1F082DF709F809F909BF
:100A0000FA09F70A0319F80A0319F90A0319FA0A85
:100A10000800B00A8314FE01FD012030FC00823082
:100A2000FB002B088316A30083122A088316A2005A
:100A3000831229088316A100831228088316A000B8
:100A400083124F20F708031D2E2DF808031D2E2DAD
:100A5000F908031D2E2DFA080319AE2D3008323C7B
:100A6000031DAE2DB00183102B08FE002A08FD00E7
:100A70002908FC002808FB008316A301A201A1019C
:100A80007F30A00083124F207A08AB007908AA00BB
:100A90007808A9007708A80083141730FE00B73043
:100AA000FD005130FC008230FB002B088316A300B0
:100AB00083122A088316A200831229088316A10034
:100AC000831228088316A00083124F207A08DC00C6
:100AD0007908DB007808DA007708D9007A08E000A6
:100AE0007908DF007808DE007708DD001730E400C1
:100AF000B730E3005130E2007A30E10095217A0806
:100B0000DC007908DB007808DA007708D9007A0879
:100B1000E0007908DF007808DE007708DD006F2349
:100B20007A08DC007908DB007808DA007708D90059
:100B3000EA2401307702AC007808AD000030031CD5
:100B40000130AD027908AE000030031C0130AE0266
:100B50007A08AF000030031C0130AF020C108E0188
:100B60000B308F00DC308E000C108A110A12252801
:100B700003081F398300AB01AA01A9017F30A80037
:100B80008314A7018B1BA7178B131730FE00B730F8
:100B9000FD005130FC008230FB002B088316A300BF
:100BA00083122A088316A200831229088316A10043
:100BB000831228088316A00083124F20A71B8B17CF
:100BC0007A08B5007908B4007808B3007708B20055
:100BD000A7018B1BA7178B137A08E0007908DF00A9
:100BE0007808DE007708DD001730E400B730E30056
:100BF0005130E2007A30E1009521A71B8B177A086B
:100C0000B5007908B4007808B3007708B200A701EE
:100C10008B1BA7178B137A08E0007908DF00780890
:100C2000DE007708DD006F23A71B8B17A7018B1B46
:100C3000A7178B137A08DC007908DB007808DA0044
:100C40007708D900EA24A71B8B1701307702AC0084
:100C50007808AD000030031C0130AD027908AE0009
:100C60000030031C0130AE027A08AF000030031CD4
:100C70000130AF02B001B10183161F149F141F157C
:100C80009F1107309C008313071306140108C03915
:100C900007388100B530831290008E010B308F0031
:100CA000DC308E000B1683160C14C03083128B04BC
:040CB000582E630057
:02400E00323F3F
:00000001FF
;PIC16F877A
;CRC=FF19  CREATED="27-Mar-20 18:30"
