:1000000008308A0000280000FF00030E8301A100D1
:100010000A08A0008A010408A2007708A300780853
:10002000A4007908A5007A08A600831383120B1E8A
:100030001B288B183C288C308400801C21288C18AD
:100040003F288C308400001D27280C1942288B1E65
:100050002B280B194528220884002308F7002408C0
:10006000F8002508F9002608FA0020088A00210E69
:100070008300FF0E7F0E09008A110A1248288A1198
:100080000A127C288A110A12E9288A110A126228A7
:100090003C133C088316870083120713BC133C08EB
:1000A0008316870083128713B91C59282F088100F3
:1000B0005B28330881000B118B168B108B108A1173
:1000C0000A122B28391C6D2839196D283C133C085D
:1000D000831687008312071777283918772839196C
:1000E0007728BC133C0883168700831287178B126E
:1000F0000B118A110A122B28BB1F8128B81F8D28CB
:100100008328B81B95283B083802031C9528031D3B
:100110008D283A083702031C9528BC103C0883162A
:100120008700831287108A010028FF30E700E6006D
:100130003B08E9003A08E800670869068039EB00E7
:10014000E71FA728E609E709E60A0319E70AE91FF6
:10015000AE28E809E909E80A0319E90A1030EA00BB
:10016000F701FA01E70CE60C031CBC286808F70746
:100170000318FA0A6908FA07FA0CF70CF90CF80CDC
:10018000EA0BB228EB1FC928F809F909F80A031984
:10019000F90A7908FA007808B81FD128FA1FDD2873
:1001A000D328FA1BE52838087A02031CE528031D2A
:1001B000DD2837087802031CE528BC103C088316AC
:1001C0008700831287108A0100288C108A110A1276
:1001D0002B28871CEF28B70A0319B80AF328370819
:1001E0000319B803B7030C118A110A122B28B63071
:1001F000F700FA01F901F8013D083E043F0440040C
:10020000031D0429F70111290310F81B1029BD0D46
:10021000BE0DBF0DC00DFA0DF90DF80DF70B042939
:10022000F813080080308318DB06E001E10157086D
:10023000DF005B08DF0656080319022ADE00F7001C
:100240005A0803190B2ADE020319A729031C652982
:100250005B08E400E4175C08E3005D08E200E101EC
:100260000310E40CE30CE20CE10CDE0B2F29DF1F82
:100270003C2960141F2A60105E10601659308400FB
:100280008313342A6012DF1B4F295E1C5A29E40CA9
:10029000E30CE20CE10CF70A03191A2A5A29E41BB1
:1002A0005D290310E10DE20DE30DE40DF7030319E1
:1002B0001A2A4F296017C72960135708DF00DF1F6C
:1002C0006329E417132AE413132A5A08DE00F700FF
:1002D0005608DE025708E400E4175808E3005908FE
:1002E000E200E1010310E40CE30CE20CE10CDE0B94
:1002F0007129DF1F7E29E0141F2AE0105E10E0162E
:100300005D3084008313342AE012DF1B91295E1CC8
:100310009C29E40CE30CE20CE10CF70A03191A2AFD
:100320009C29E41B9F290310E10DE20DE30DE40D70
:10033000F70303191A2A9129E017C729E0135B086C
:10034000DF00DF1FA529E417132AE413132A5B0833
:10035000E400E4175C08E3005D08E200DF1FB42955
:10036000E41360151F2A6011E1015E10593084000A
:100370008313342ADF1BDD295708DF005E1CC729E1
:10038000E40CE30CE20CE10CF70A03191A2AE11F52
:10039000D829E20A031DD829E30A031DD829E40A53
:1003A000031DD829E40CE30CE20CF70A03191A2AFE
:1003B000601B5C29E01B9E29FC298030E406E41FB9
:1003C000E5291F2A5B08DF00F2295708DF00E4084F
:1003D000031DF229E308031DF229E208031DF22997
:1003E000F701132AE41BFC290310E10DE20DE30DD4
:1003F000E40DF70BF2291A2ADF1F002AE417132A4B
:10040000E413132A5A08F7005B08E4005C08E300D1
:100410005D08E200132A5608F7005708E400580860
:10042000E3005908E2006408F8006308F900620874
:10043000FA00522AF701F801F901FA01522AE10102
:10044000E209E309E409E109E10A031D2D2AE20AB0
:10045000031D2D2AE30A0319E40A60183B29E0185A
:100460007D296019B329E2290008E207031C3E2A0E
:10047000E30A031D3E2AE40A03195E1484030008FC
:10048000E307031C462AE40A03195E1484030008E8
:10049000801F803AE40703185E14601A4229E01AAC
:1004A0008429BA29080043080319182BCF004708EC
:1004B0000319182BCF02031C622A7F30CF070318C1
:1004C000182B682A8130CF02031C182B0319182B14
:1004D0004F08F700F801F901FA01CE014408CD00F8
:1004E000CD174508CC004608CB001930CF004A088C
:1004F000CB0203188B2A0130CC0203188B2ACD02C1
:1005000003188B2ACE0203188B2ACE0ACD0ACC0AF6
:100510004A08CB07BD2A4908CC020318A62A013095
:10052000CD020318A62ACE020318A62ACE0ACD0AA7
:100530004908CC074A08CB07031CBD2ACC0A031D77
:10054000BD2ACD0A031DBD2ACE0ABD2A480880381F
:10055000CD020318BC2A0130CE020318BC2ACE0AF1
:1005600048088038CD074908CC07031C9A2ACD0AD1
:10057000031D9A2ACE0A9A2A7A14CF0BC02ACB2AB4
:100580000310CB0DCC0DCD0DCE0D0310FA0DF90DD2
:10059000F80DD00D772A501CD32A0310F80CF90C53
:1005A000FA0CD00CD62AF7030319182BD01BFF2AFC
:1005B0000310CB0DCC0DCD0DCE0D4A08CB02031888
:1005C000EB2A0130CC020318EB2ACD020318EB2AE8
:1005D000CE02031C0E2B4908CC020318F62A013068
:1005E000CD020318F62ACE02031C0E2B48088038D1
:1005F000CD020318FF2A0130CE02031C0E2BFA0A8B
:10060000031D0E2BF90A031D0E2BF80A031D0E2BDA
:10061000F70A0319182BF80CF90CFA0C4408CF0050
:100620004808CF06CF1F162BF8171C2BF8131C2BCE
:10063000F701F801F901FA0108005308DA00570838
:10064000DA06DA1F282B03110310D31B03145B2BCC
:100650005308DA005608DB005208DB020319362B78
:10066000DA1F5B2B0308013A83005B2B5708DB0082
:100670005308DB020319422BDA1F5B2B0308013AF4
:1006800083005B2B5808DB005408DB0203194E2B58
:10069000DA1F5B2B0308013A83005B2B5908DB0050
:1006A0005508DB0203195A2BDA1F5B2B0308013AAA
:1006B00083005B2B031008008E30F7005208F7020E
:1006C0005308F9005408F800F917F7080319732BB9
:1006D0000310F908031D6F2BF8080319732BF90C8D
:1006E000F80CF70B682BD31F7A2BF809F909F80AD5
:1006F0000319F90A08008E30F7005708F800560869
:10070000F900FA01F808031D8F2B7908F800F901A8
:100710000830F702F808031D8F2BF701972B031001
:10072000F81B962BF90DF80DF7038F2BF813080023
:1007300052080319082CDA0056080319082CDA07A6
:100740000318A92B7F30DA02031C082C0319082C8C
:10075000AD2B8130DA070318082C5A08F700F8018E
:10076000F901FA015308DE00DE175408DD005508D0
:10077000DC001830DA00DB015C1CD62B5908FA07C4
:10078000031CC82BF90A031DC82BF80A0319DB1731
:100790005808F907031CCF2BF80A0319DB17570871
:1007A000D400D4175408F8070318DB17DB0DF80C36
:1007B000F90CFA0CDE0CDD0CDC0C0310DA0BBB2B95
:1007C0000130F7070318082CF81BED2BDE0DFA0D8E
:1007D000F90DF80DF7030319082CDE1FFE2BFA0A9A
:1007E000031DFE2BF90A031DFE2BF80A031DFE2B29
:1007F000F80CF90CFA0CF70A0319082C5308DB0063
:100800005708DB06DB1F062CF8170C2CF8130C2CF2
:10081000F701F801F901FA01080051104608CA0071
:100820004508C9004408C8004308C7004608D50069
:100830004508D4004408D3004308D200D901D801A8
:10084000D701D6011D23031C292C51144808803AD6
:10085000C8004A08D5004908D4004808D300470812
:10086000D200D901D801D7018E30D6001D2303183C
:100870003B2C031D522C4A08D5004908D4004808D7
:10088000D3004708D2005C237908D7007808D60047
:100890007B237A08CE007908CD007808CC00770851
:1008A000CB000F2D4A08D5004908D4004808D300D2
:1008B0004708D2008030D9009630D8001830D700D1
:1008C0009630D6001D23031C072D4A08D500490881
:1008D000D4004808D3004708D200D901D801D70175
:1008E0007030D60098237A08D5007908D4007808AB
:1008F000D3007708D2005C237908D0007808CF00B5
:100900004A08D5004908D4004808D3004708D20057
:10091000D901D801D7017030D60098237A08D500C4
:100920007908D4007808D3007708D2005008D7009F
:100930004F08D6007B2383145508D9005408D800EB
:100940005308D7005208D6007A08DD007908DC0089
:100950007808DB007708DA001221D501D401D30131
:100960008E30D2007A08D9007908D8007808D700EC
:100970007708D60098237A08CA007908C900780851
:10098000C8007708C7005008D7004F08D6007B235F
:10099000D501D401D3018E30D2007A08D90079086C
:1009A000D8007808D7007708D60098237A08CE00B8
:1009B0007908CD007808CC007708CB004A08D5002C
:1009C0004908D4004808D3004708D2005C237908BE
:1009D000D7007808D6007B2383104E08D9004D0835
:1009E000D8004C08D7004B08D6007A08DD007908FB
:1009F000DC007808DB007708DA0012217A08CE00E4
:100A00007908CD007808CC007708CB000F2D4A0874
:100A1000CE004908CD004808CC004708CB004A0862
:100A2000D5004908D4004808D3004708D2005C2309
:100A30007908D7007808D6007B2383144A08D900A8
:100A40004908D8004808D7004708D6007A08DD00D2
:100A50007908DC007808DB007708DA0012217A08D0
:100A6000CA007908C9007808C8007708C700511C77
:100A70003C2D4C08803ACC004A08D5004908D400E7
:100A80004808D3004708D200D901D801D701D601C0
:100A90001D230319642D511C642D83144E08D900A5
:100AA0004D08D8004C08D7004B08D600DD01DC010A
:100AB000DB017F30DA0012217A08CE007908CD0000
:100AC0007808CC007708CB004608D5004508D4004C
:100AD0004408D3004308D200D901D801D701D60178
:100AE0001D23031D772DCE01CD01CC01CB014B0879
:100AF000F7004C08F8004D08F9004E08FA0008000D
:100B00003F08B63CBF00FA014008C300C0170310FD
:100B1000C00CC10CC20CFA0CF90CF80CF70CBF0B92
:100B2000872DC31F9E2DF709F809F909FA09F70A5D
:100B30000319F80A0319F90A0319FA0A08004830D8
:100B40008400831300080319B22D0630F800F70162
:100B5000F70BA82DF80BA72D7B30F700F70BAE2D68
:100B6000800BA52D08003915BC103C0883168700A2
:100B7000831287103808C2003708C1004008C60039
:100B80003F08C5003E08C4003D08C300FF30C3074E
:100B9000031CC407031CC507031CC607C308031DA9
:100BA000DA2DC408031DDA2DC508031DDA2DC60889
:100BB0000319F22D41083702031DE22D42083802C5
:100BC0000319F12D4008C6003F08C5003E08C400C7
:100BD0003D08C3003808C2003708C1001E30C800F5
:100BE0009F25C62DB801B701BC103C0883168700AD
:100BF000831287140C30C700FA30C8009F25C70B3A
:100C0000FC2D83168C14831239118A150A12372988
:100C1000BC133C08831687008312871339143911DB
:100C2000080039153C133C0883168700831207130C
:100C3000BC133C08831687008312871308003C13FB
:100C40003C088316870083120713391139100800F6
:100C5000B81B312EB808031D412E3708C83C031CB1
:100C6000412EB81F3F2E3808FF3C031C3F2E031DAA
:100C70003D2E3708383C031C3F2E8A0100280826E9
:100C8000282E1126B81B462E1126422EB81F532E91
:100C90003808FE3C0318552EFF3A031D532E370823
:100CA000373C0318552E1F26462E1126B81B5F2EE3
:100CB000B808031D612E3708003C031C612E112665
:100CC000562EB81B6D2E3808013C031C6F2E031DD9
:100CD0006D2E3708903C031C6F2E0826612E1126BE
:100CE000B81B742E1126702EB81F812E3808FD3CBB
:100CF0000318832EFF3A031D812E37086F3C03181B
:100D0000832E1F26742E1126B81B8D2EB808031DA6
:100D10008F2E3708003C031C8F2E1126842EB81B03
:100D20009B2E3808033C031C9D2E031D9B2E370869
:100D3000203C031C9D2E08268F2E1126B81BA22EA8
:100D400011269E2EB81FAF2E3808FB3C0318B12E7B
:100D5000FF3A031DAF2E3708DF3C0318B12E1F26C4
:100D6000A22E1126B81BBB2EB808031DBD2E3708B6
:100D7000003C031CBD2E1126B22EB81BC92E38080C
:100D8000043C031CCB2E031DC92E3708B03C031CAA
:100D9000CB2E0826BD2E1126B9108A150A123A2923
:100DA000B81BDF2E3808003C0318DF2EFF3A031D66
:100DB000DD2E37088F3C0318DF2E1126D02EB81FEA
:100DC000EC2E3808FB3C0318EE2EFF3A031DEC2EE8
:100DD0003708DF3C0318EE2E1F26DF2E1126B81F22
:100DE000FD2E3808FE3C031CFD2E031DFB2E37088C
:100DF000703C031CFD2E1126EF2EB81B092F38085E
:100E0000033C031C0B2F031D092F3708203C031C38
:0E0E10000B2F0826FD2E11268A150A123D29E9
:1010000003081F398300AA01A901A8010130A70024
:10101000AE01AD01AC010630AB002A08C0002908C2
:10102000BF002808BE002708BD008A11F7208A15D6
:1010300083141730D900B730D8005130D700823030
:10104000D6007A08DD007908DC007808DB00770834
:10105000DA008A1112218A157A08C0007908BF00C7
:101060007808BE007708BD007A08C6007908C50078
:101070007808C4007708C3001730CA00B730C90029
:101080005130C8007A30C7008A1153228A157A0875
:10109000C0007908BF007808BE007708BD007A0854
:1010A000C6007908C5007808C4007708C3008A1113
:1010B0000D248A157A08C2007908C1007808C0009A
:1010C0007708BF008A1180258A1501307702AF00AA
:1010D0007808B0000030031C0130B0027908B1007C
:1010E0000030031C0130B1027A08B2000030031C4A
:1010F0000130B2022E08C0002D08BF002C08BE002F
:101100002B08BD008A11F7208A15BE010408BD0016
:101110003E10831B3E1483141730D900B730D8001B
:101120005130D7008230D6007A08DD007908DC0023
:101130007808DB007708DA008A1112218A153D0849
:10114000840083133E1883177A08C2007908C1000F
:101150007808C0007708BF007A08C6007908C50083
:101160007808C4007708C3001730CA00B730C90038
:101170005130C8007A30C7008A1153228A157A0884
:10118000C2007908C1007808C0007708BF007A085B
:10119000C6007908C5007808C4007708C3008A1122
:1011A0000D248A157A08C2007908C1007808C000A9
:1011B0007708BF008A1180258A1501307702B300B5
:1011C0007808B4000030031C0130B4027908B5007F
:1011D0000030031C0130B5027A08B6000030031C51
:1011E0000130B602B801B7013914B9143915073006
:1011F000BB00D030BA00FF30BC0083161F149F1410
:101200001F159F1107309C00831307150714061440
:1012100087130713871083128B100B168316011385
:101220000108C0390738810083128B163C153C0831
:101230008316870083129701043097008530900051
:1012400083160C157830F800063883129200FF30B0
:101250008316920083129101C0308B04C0011630B6
:10126000BF00E330BE006030BD008A11B32D8A1587
:101270008A11282E8A158A11D02E8A153B296300DF
:02400E00323F3F
:00000001FF
;PIC16F877A
;CRC=CC8F  CREATED="23-Apr-20 01:10"
