:1000000006308A00572E0000FF00030E8301A10076
:100010000A08A0008A010408A2007708A300780853
:10002000A4007908A5007A08A600831383120B1E8A
:100030001B288B1836288C308400001D21280C19B1
:1000400039288B1E25280B193C28220884002308F8
:10005000F7002408F8002508F9002608FA0020080F
:100060008A00210E8300FF0E7F0E09008A110A12FA
:100070003F288A110A1273288A110A125928461336
:1000800046088316870083120713C6134608831693
:10009000870083128713C51C502839088100522815
:1000A0003D0881000B118B168B108B108A110A12E0
:1000B0002528451C642845196428461346088316DC
:1000C0008700831207176E2845186E2845196E2879
:1000D000C613460883168700831287178B120B11ED
:1000E0008A110A122528071C7928C10A0319C20A95
:1000F0007D2841080319C203C1030C118A110A1299
:10010000252880308318E506EA01EB016108E90043
:100110006508E906600803197129E800F70064081A
:1001200003197A29E80203191629031CD428650843
:10013000EE00EE176608ED006708EC00EB01031017
:10014000EE0CED0CEC0CEB0CE80B9E28E91FAB2839
:100150006A148E296A1068106A166330840083134B
:10016000A3296A12E91BBE28681CC928EE0CED0CF5
:10017000EC0CEB0CF70A03198929C928EE1BCC28D3
:100180000310EB0DEC0DED0DEE0DF70303198929AE
:10019000BE286A1736296A136108E900E91FD228C8
:1001A000EE178229EE1382296408E800F700600840
:1001B000E8026108EE00EE176208ED006308EC004B
:1001C000EB010310EE0CED0CEC0CEB0CE80BE02853
:1001D000E91FED28EA148E29EA106810EA16673044
:1001E00084008313A329EA12E91B0029681C0B2948
:1001F000EE0CED0CEC0CEB0CF70A031989290B291A
:10020000EE1B0E290310EB0DEC0DED0DEE0DF703BB
:10021000031989290029EA173629EA136508E90034
:10022000E91F1429EE178229EE1382296508EE00D2
:10023000EE176608ED006708EC00E91F2329EE13AE
:100240006A158E296A11EB016810633084008313EC
:10025000A329E91B4C296108E900681C3629EE0C2A
:10026000ED0CEC0CEB0CF70A03198929EB1F47295D
:10027000EC0A031D4729ED0A031D4729EE0A031D59
:100280004729EE0CED0CEC0CF70A031989296A1BBF
:10029000CB28EA1B0D296B298030EE06EE1F54296E
:1002A0008E296508E90061296108E900EE08031D4F
:1002B0006129ED08031D6129EC08031D6129F7017F
:1002C0008229EE1B6B290310EB0DEC0DED0DEE0DED
:1002D000F70B61298929E91F6F29EE178229EE138F
:1002E00082296408F7006508EE006608ED006708DB
:1002F000EC0082296008F7006108EE006208ED005A
:100300006308EC006E08F8006D08F9006C08FA004C
:10031000C129F701F801F901FA01C129EB01EC0942
:10032000ED09EE09EB09EB0A031D9C29EC0A031DFC
:100330009C29ED0A0319EE0A6A18AA28EA18EC2883
:100340006A19222951290008EC07031CAD29ED0A7E
:10035000031DAD29EE0A0319681484030008ED0794
:10036000031CB529EE0A0319681484030008801FD2
:10037000803AEE07031868146A1AB128EA1AF328BB
:10038000292908004D080319872AD90051080319A3
:10039000872AD902031CD1297F30D9070318872A5D
:1003A000D7298130D902031C872A0319872A5908C3
:1003B000F700F801F901FA01D8014E08D700D71764
:1003C0004F08D6005008D5001930D9005408D5027E
:1003D0000318FA290130D6020318FA29D7020318A4
:1003E000FA29D8020318FA29D80AD70AD60A5408D3
:1003F000D5072C2A5308D6020318152A0130D70234
:100400000318152AD8020318152AD80AD70A530840
:10041000D6075408D507031C2C2AD60A031D2C2AFC
:10042000D70A031D2C2AD80A2C2A52088038D70252
:1004300003182B2A0130D80203182B2AD80A520895
:100440008038D7075308D607031C092AD70A031D8B
:10045000092AD80A092A7A14D90B2F2A3A2A031012
:10046000D50DD60DD70DD80D0310FA0DF90DF80DD9
:10047000DA0DE6295A1C422A0310F80CF90CFA0C82
:10048000DA0C452AF7030319872ADA1B6E2A0310B0
:10049000D50DD60DD70DD80D5408D50203185A2AFC
:1004A0000130D60203185A2AD70203185A2AD80252
:1004B000031C7D2A5308D6020318652A0130D7028F
:1004C0000318652AD802031C7D2A52088038D702F7
:1004D00003186E2A0130D802031C7D2AFA0A031D74
:1004E0007D2AF90A031D7D2AF80A031D7D2AF70AD1
:1004F0000319872AF80CF90CFA0C4E08D900520897
:10050000D906D91F852AF8178B2AF8138B2AF701E9
:10051000F801F901FA0108005D08E4006108E40649
:10052000E41F972A03110310DD1B0314CA2A5D0878
:10053000E4006008E5005C08E5020319A52AE41F51
:10054000CA2A0308013A8300CA2A6108E5005D0847
:10055000E5020319B12AE41FCA2A0308013A8300FD
:10056000CA2A6208E5005E08E5020319BD2AE41FF5
:10057000CA2A0308013A8300CA2A6308E5005F0813
:10058000E5020319C92AE41FCA2A0308013A8300B5
:10059000CA2A031008008E30F7005C08F7025D08D5
:1005A000F9005E08F800F917F7080319E22A0310AA
:1005B000F908031DDE2AF8080319E22AF90CF80CE1
:1005C000F70BD72ADD1FE92AF809F909F80A0319F8
:1005D000F90A08008E30F7006108F8006008F90099
:1005E000FA01F808031DFE2A7908F800F90108301D
:1005F000F702F808031DFE2AF701062B0310F81B6B
:10060000052BF90DF80DF703FE2AF81308005C0816
:100610000319772BE40060080319772BE40703180C
:10062000182B7F30E402031C772B0319772B1C2B2C
:100630008130E4070318772B6408F700F801F9010B
:10064000FA015D08E800E8175E08E7005F08E600C9
:100650001830E400E501661C452B6308FA07031C0B
:10066000372BF90A031D372BF80A0319E51762081F
:10067000F907031C3E2BF80A0319E5176108DE0091
:10068000DE175E08F8070318E517E50DF80CF90CFE
:10069000FA0CE80CE70CE60C0310E40B2A2B0130F3
:1006A000F7070318772BF81B5C2BE80DFA0DF90DF3
:1006B000F80DF7030319772BE81F6D2BFA0A031DBA
:1006C0006D2BF90A031D6D2BF80A031D6D2BF80C19
:1006D000F90CFA0CF70A0319772B5D08E50061089D
:1006E000E506E51F752BF8177B2BF8137B2BF7011D
:1006F000F801F901FA0108005B105008D4004F0816
:10070000D3004E08D2004D08D1005008DF004F083A
:10071000DE004E08DD004D08DC00E301E201E101EE
:10072000E0018C22031C982B5B145208803AD20003
:100730005408DF005308DE005208DD005108DC00D9
:10074000E301E201E1018E30E0008C220318AA2BC4
:10075000031DC12B5408DF005308DE005208DD00E2
:100760005108DC00CB227908E1007808E000EA2299
:100770007A08D8007908D7007808D6007708D5001D
:100780007E2C5408DF005308DE005208DD005108BB
:10079000DC008030E3009630E2001830E100963053
:1007A000E0008C22031C762C5408DF005308DE0086
:1007B0005208DD005108DC00E301E201E101703084
:1007C000E00007237A08DF007908DE007808DD0002
:1007D0007708DC00CB227908DA007808D9005408C1
:1007E000DF005308DE005208DD005108DC00E301A1
:1007F000E201E1017030E00007237A08DF007908A8
:10080000DE007808DD007708DC005A08E1005908AE
:10081000E000EA2283145F08E3005E08E2005D085E
:10082000E1005C08E0007A08E7007908E600780853
:10083000E5007708E4008120DF01DE01DD018E3074
:10084000DC007A08E3007908E2007808E100770824
:10085000E00007237A08D4007908D3007808D20092
:100860007708D1005A08E1005908E000EA22DF01C8
:10087000DE01DD018E30DC007A08E3007908E20059
:100880007808E1007708E00007237A08D8007908A3
:10089000D7007808D6007708D5005408DF00530841
:1008A000DE005208DD005108DC00CB227908E100AF
:1008B0007808E000EA2283105808E3005708E200B5
:1008C0005608E1005508E0007A08E7007908E600DC
:1008D0007808E5007708E40081207A08D8007908D4
:1008E000D7007808D6007708D5007E2C5408D800A9
:1008F0005308D7005208D6005108D5005408DF002D
:100900005308DE005208DD005108DC00CB227908D4
:10091000E1007808E000EA2283145408E300530859
:10092000E2005208E1005108E0007A08E700790887
:10093000E6007808E5007708E40081207A08D40012
:100940007908D3007808D2007708D1005B1CAB2C63
:100950005608803AD6005408DF005308DE005208DB
:10096000DD005108DC00E301E201E101E0018C223D
:100970000319D32C5B1CD32C83145808E3005708AD
:10098000E2005608E1005508E000E701E601E50154
:100990007F30E40081207A08D8007908D7007808F1
:1009A000D6007708D5005008DF004F08DE004E085B
:1009B000DD004D08DC00E301E201E101E0018C22F1
:1009C000031DE62CD801D701D601D5015508F70043
:1009D0005608F8005708F9005808FA0008004908B6
:1009E000B63CC900FA014A08CD00CA170310CA0C68
:1009F000CB0CCC0CFA0CF90CF80CF70CC90BF62C40
:100A0000CD1F0D2DF709F809F909FA09F70A03199D
:100A1000F80A0319F90A0319FA0A08004515C6105D
:100A2000460883168700831287104208CC004108CD
:100A3000CB004A08D0004908CF004808CE0047083C
:100A4000CD00FF30CD07031CCE07031CCF07031CCE
:100A5000D007CD08031D352DCE08031D352DCF0839
:100A6000031D352DD0080319502D4B084102031DDD
:100A70003D2D4C08420203194F2D4A08D000490869
:100A8000CF004808CE004708CD004208CC004108FE
:100A9000CB002030F700F70B4B2D4E2D0000212D01
:100AA0004C08C2004B08C100C610460883168700D8
:100AB0008312871445118A110A12792FC61346082A
:100AC00083168700831287134514451108004515C6
:100AD000461346088316870083120713C613460879
:100AE000831687008312871308004613460883166F
:100AF000870083120713451145100800C21B872D7C
:100B0000C208031D892D4108C83C031C892D5E25A0
:100B10007E2D6725C21B8E2D67258A2DC21F9B2D1A
:100B20004208FE3C03189D2DFF3A031D9B2D4108F2
:100B3000373C03189D2D75258E2D6725C21BA72DCB
:100B4000C208031DA92D4108003C031CA92D6725DF
:100B50009E2DC21BB52D4208013C031CB72D031D61
:100B6000B52D4108903C031CB72D5E25A92D6725A6
:100B7000C21BBC2D6725B82DC21FC92D4208FD3CE4
:100B80000318CB2DFF3A031DC92D41086F3C0318F4
:100B9000CB2D7525BC2D6725C21BD52DC208031D85
:100BA000D72D4108003C031CD72D6725CC2DC21B37
:100BB000E32D4208033C031CE52D031DE32D4108F2
:100BC000203C031CE52D5E25D72D6725C21BEA2D91
:100BD0006725E62DC21FF72D4208FB3C0318F92DAF
:100BE000FF3A031DF72D4108DF3C0318F92D752549
:100BF000EA2D6725C21B032EC208031D052E4108DE
:100C0000003C031C052E6725FA2DC21B112E42083D
:100C1000043C031C132E031D112E4108B03C031C81
:100C2000132E5E25052E6725C5108A110A127A2F0C
:100C3000C21B272E4208003C0318272EFF3A031D33
:100C4000252E41088F3C0318272E6725182EC21F1A
:100C5000342E4208FB3C0318362EFF3A031D342E77
:100C60004108DF3C0318362E7525272E6725C21F45
:100C7000452E4208FE3C031C452E031D432E410811
:100C8000703C031C452E6725372EC21B512E42088F
:100C9000033C031C532E031D512E4108203C031C12
:100CA000532E5E25452E67258A110A127B2F0308D5
:100CB0001F398300B401B301B2017F30B100B80124
:100CC000B7014030B6008130B50083141730E3001F
:100CD000B730E2005130E1008230E0003408E70034
:100CE0003308E6003208E5003108E40081207A0884
:100CF000CA007908C9007808C8007708C7007A08D0
:100D0000D0007908CF007808CE007708CD001730E2
:100D1000D400B730D3005130D2007A30D100C22194
:100D20007A08CA007908C9007808C8007708C7009F
:100D30007A08D0007908CF007808CE007708CD0077
:100D40007C237A08CC007908CB007808CA007708A1
:100D5000C900EF247A08CA007908C9007808C800D9
:100D600001307702B9007808BA000030031C013066
:100D7000BA027908BB000030031C0130BB027A08BC
:100D8000BC000030031C0130BC02C8010408C700CD
:100D90004810831B481483141730E300B730E20077
:100DA0005130E1008230E0003808E7003708E60003
:100DB0003608E5003508E4008120470884008313E5
:100DC000481883177A08CC007908CB007808CA0045
:100DD0007708C9007A08D0007908CF007808CE00DB
:100DE0007708CD001730D400B730D3005130D2008F
:100DF0007A30D100C2217A08CC007908CB0078087B
:100E0000CA007708C9007A08D0007908CF007808AE
:100E1000CE007708CD007C237A08CC007908CB007F
:100E20007808CA007708C900EF2401307702BD00B6
:100E30007808BE000030031C0130BE027908BF00F4
:100E40000030031C0130BF027A08C0000030031CD0
:100E50000130C002C201C101C301C4014514C5145F
:100E60004515FF30C60083161F149F141F159F11D0
:100E700007309C00831330308312A7003130A80064
:100E80003230A9003330AA003430AB003530AC002A
:100E90003630AD003730AE003830AF003930B000FA
:100EA0008316071507140614871087130713831278
:100EB0008B100B16831601138312461546088316F2
:100EC00087008312970104309700853090008316C5
:100ED0000C150108C0390738810083128B16C03009
:100EE0008B04CA019830C9009630C8008030C70012
:0A0EF0000E2D7E2D182E7A2F6300C0
:02400E00323F3F
:00000001FF
;PIC16F877A
;CRC=B9CA  CREATED="09-Apr-20 10:22"
