:1000000008308A0000280000FF00030E8301A100D1
:100010000A08A0008A010408A2007708A300780853
:10002000A4007908A5007A08A600831383120B1E8A
:100030001B288B183C288C308400801C21288C18AD
:100040003F288C308400001D27280C1942288B1E65
:100050002B280B194528220884002308F7002408C0
:10006000F8002508F9002608FA0020088A00210E69
:100070008300FF0E7F0E09008A110A1248288A1198
:100080000A127C288A110A12E9288A110A126228A7
:100090003C133C088316870083120713BC133C08EB
:1000A0008316870083128713B91C59282F088100F3
:1000B0005B28330881000B118B168B108B108A1173
:1000C0000A122B28391C6D2839196D283C133C085D
:1000D000831687008312071777283918772839196C
:1000E0007728BC133C0883168700831287178B126E
:1000F0000B118A110A122B28BB1F8128B81F8D28CB
:100100008328B81B95283B083802031C9528031D3B
:100110008D283A083702031C95283C103C088316AA
:100120008700831207108A010028FF30E500E400F1
:100130003B08E7003A08E600650867068039E900F1
:10014000E51FA728E409E509E40A0319E50AE71F02
:10015000AE28E609E709E60A0319E70A1030E800C5
:10016000F701FA01E50CE40C031CBC286608F7074C
:100170000318FA0A6708FA07FA0CF70CF90CF80CDE
:10018000E80BB228E91FC928F809F909F80A031988
:10019000F90A7908FA007808B81FD128FA1FDD2873
:1001A000D328FA1BE52838087A02031CE528031D2A
:1001B000DD2837087802031CE5283C103C0883162C
:1001C0008700831207108A0100288C108A110A12F6
:1001D0002B28871CEF28B70A0319B80AF328370819
:1001E0000319B803B7030C118A110A122B288316BE
:1001F00088160817861406158615061686168312A5
:100200000608303903190E29103A03191429303A17
:1002100003191A29103A031920292529AA01A9012D
:10022000A8010130A7002529AA01A901A8010230CF
:10023000A7002529AA01A901A8010330A7002529A3
:10024000AA01A901A8010430A70006080E39F13E51
:1002500003185B290F3E7F29AE01AD01AC010230CE
:10026000AB005B29AE01AD01AC010330AB005B29F3
:10027000AE01AD01AC010430AB005B29AE01AD01B4
:10028000AC010530AB005B29AE01AD01AC0106301D
:10029000AB005B29AE01AD01AC010730AB005B29BF
:1002A000AE01AD01AC010830AB005B29AE01AD0180
:1002B000AC010930AB000808603903196929203AFC
:1002C00003196E29603A03197329203A0319782912
:1002D0007C290730BB00D030BA007C290930BB0034
:1002E0006030BA007C290A30BB00F030BA007C29AB
:1002F0000C30BB008030BA008A150A123A280A1462
:100300008A100A1182072C295B2932295B29382996
:100310005B293E295B2944295B294A295B2950290D
:100320005B29562948308400831300080319A52946
:100330000630F800F701F70B9B29F80B9A297B3060
:10034000F700F70BA129800B98290800B630F700B9
:10035000FA01F901F8013D083E043F044004031D81
:10036000B329F701C0290310F81BBF29BD0DBE0D2D
:10037000BF0DC00DFA0DF90DF80DF70BB329F813E9
:10038000080080308318D906DE01DF015508DD0042
:100390005908DD0654080319B12ADC00F700580893
:1003A0000319BA2ADC020319562A031C142A590815
:1003B000E200E2175A08E1005B08E000DF010310E9
:1003C000E20CE10CE00CDF0CDC0BDE29DD1FEB297D
:1003D0005E14CE2A5E105C105E16573084008313C4
:1003E000E32A5E12DD1BFE295C1C092AE20CE10CEB
:1003F000E00CDF0CF70A0319C92A092AE21B0C2AB0
:100400000310DF0DE00DE10DE20DF7030319C92A1A
:10041000FE295E17762A5E135508DD00DD1F122ABD
:10042000E217C22AE213C22A5808DC00F700540877
:10043000DC025508E200E2175608E1005708E00028
:10044000DF010310E20CE10CE00CDF0CDC0B202AD6
:10045000DD1F2D2ADE14CE2ADE105C10DE165B3086
:1004600084008313E32ADE12DD1B402A5C1C4B2A26
:10047000E20CE10CE00CDF0CF70A0319C92A4B2A45
:10048000E21B4E2A0310DF0DE00DE10DE20DF70334
:100490000319C92A402ADE17762ADE135908DD001F
:1004A000DD1F542AE217C22AE213C22A5908E200C9
:1004B000E2175A08E1005B08E000DD1F632AE2133F
:1004C0005E15CE2A5E11DF015C1057308400831365
:1004D000E32ADD1B8C2A5508DD005C1C762AE20C21
:1004E000E10CE00CDF0CF70A0319C92ADF1F872A89
:1004F000E00A031D872AE10A031D872AE20A031D79
:10050000872AE20CE10CE00CF70A0319C92A5E1BEA
:100510000B2ADE1B4D2AAB2A8030E206E21F942A0A
:10052000CE2A5908DD00A12A5508DD00E208031D86
:10053000A12AE108031DA12AE008031DA12AF70151
:10054000C22AE21BAB2A0310DF0DE00DE10DE20D24
:10055000F70BA12AC92ADD1FAF2AE217C22AE2132C
:10056000C22A5808F7005908E2005A08E1005B085F
:10057000E000C22A5408F7005508E2005608E100DE
:100580005708E0006208F8006108F9006008FA0006
:10059000012BF701F801F901FA01012BDF01E00954
:1005A000E109E209DF09DF0A031DDC2AE00A031D75
:1005B000DC2AE10A0319E20A5E18EA29DE182C2A6D
:1005C0005E19622A912A0008E007031CED2AE10A5D
:1005D000031DED2AE20A03195C1484030008E107F5
:1005E000031CF52AE20A03195C1484030008801F27
:1005F000803AE20703185C145E1AF129DE1A332AE6
:10060000692A080041080319C72BCD0045080319C2
:10061000C72BCD02031C112B7F30CD070318C72B2E
:10062000172B8130CD02031CC72B0319C72B4D0894
:10063000F700F801F901FA01CC014208CB00CB1711
:100640004308CA004408C9001930CD004808C9024F
:1006500003183A2B0130CA0203183A2BCB020318B5
:100660003A2BCC0203183A2BCC0ACB0ACA0A480808
:10067000C9076C2B4708CA020318552B0130CB025F
:100680000318552BCC020318552BCC0ACB0A47086C
:10069000CA074808C907031C6C2BCA0A031D6C2B28
:1006A000CB0A031D6C2BCC0A6C2B46088038CB027E
:1006B00003186B2B0130CC0203186B2BCC0A4608B5
:1006C0008038CB074708CA07031C492BCB0A031DF8
:1006D000492BCC0A492B7A14CD0B6F2B7A2B0310A4
:1006E000C90DCA0DCB0DCC0D0310FA0DF90DF80D87
:1006F000CE0D262B4E1C822B0310F80CF90CFA0C95
:10070000CE0C852BF7030319C72BCE1BAE2B031082
:10071000C90DCA0DCB0DCC0D4808C90203189A2B80
:100720000130CA0203189A2BCB0203189A2BCC0271
:10073000031CBD2B4708CA020318A52B0130CB02AE
:100740000318A52BCC02031CBD2B46088038CB0216
:100750000318AE2B0130CC02031CBD2BFA0A031D7B
:10076000BD2BF90A031DBD2BF80A031DBD2BF70A8B
:100770000319C72BF80CF90CFA0C4208CD004608F7
:10078000CD06CD1FC52BF817CB2BF813CB2BF701BC
:10079000F801F901FA0108005108D8005508D806F7
:1007A000D81FD72B03110310D11B03140A2C510897
:1007B000D8005408D9005008D9020319E52BD81FD6
:1007C0000A2C0308013A83000A2C5508D900510865
:1007D000D9020319F12BD81F0A2C0308013A830010
:1007E0000A2C5608D9005208D9020319FD2BD81F2C
:1007F0000A2C0308013A83000A2C5708D900530831
:10080000D9020319092CD81F0A2C0308013A8300C6
:100810000A2C031008008E30F7005008F702510828
:10082000F9005208F800F917F7080319222C0310F1
:10083000F908031D1E2CF8080319222CF90CF80CDA
:10084000F70B172CD11F292CF809F909F80A0319FD
:10085000F90A08008E30F7005508F8005408F9002E
:10086000FA01F808031D3E2C7908F800F901083058
:10087000F702F808031D3E2CF701462C0310F81B65
:10088000452CF90DF80DF7033E2CF813080050081D
:100890000319B72CD80054080319B72CD80703182C
:1008A000582C7F30D802031CB72C0319B72C5C2CB2
:1008B0008130D8070318B72C5808F700F801F90160
:1008C000FA015108DC00DC175208DB005308DA009B
:1008D0001830D800D9015A1C852C5708FA07031C78
:1008E000772CF90A031D772CF80A0319D917560833
:1008F000F907031C7E2CF80A0319D9175508D200F2
:10090000D2175208F8070318D917D90DF80CF90CAB
:10091000FA0CDC0CDB0CDA0C0310D80B6A2C01305F
:10092000F7070318B72CF81B9C2CDC0DFA0DF90DFA
:10093000F80DF7030319B72CDC1FAD2CFA0A031DC1
:10094000AD2CF90A031DAD2CF80A031DAD2CF80CD3
:10095000F90CFA0CF70A0319B72C5108D9005508FD
:10096000D906D91FB52CF817BB2CF813BB2CF701EF
:10097000F801F901FA0108004F104408C8004308C3
:10098000C7004208C6004108C5004408D300430818
:10099000D2004208D1004108D000D701D601D501CC
:1009A000D401CC23031CD82C4F144608803AC6002F
:1009B0004808D3004708D2004608D1004508D000B7
:1009C000D701D601D5018E30D400CC230318EA2CF0
:1009D000031D012D4808D3004708D2004608D10066
:1009E0004508D0000B247908D5007808D4002A24C3
:1009F0007A08CC007908CB007808CA007708C900CB
:100A0000BE2D4808D3004708D2004608D10045084B
:100A1000D0008030D7009630D6001830D500963000
:100A2000D400CC23031CB62D4808D3004708D200BD
:100A30004608D1004508D000D701D601D501703055
:100A4000D40047247A08D3007908D2007808D1006E
:100A50007708D0000B247908CE007808CD0048082C
:100A6000D3004708D2004608D1004508D000D7017E
:100A7000D601D5017030D40047247A08D300790814
:100A8000D2007808D1007708D0004E08D5004D0874
:100A9000D4002A2483145308D7005208D6005108E2
:100AA000D5005008D4007A08DB007908DA0078080D
:100AB000D9007708D800C121D301D201D1018E30ED
:100AC000D0007A08D7007908D6007808D5007708D2
:100AD000D40047247A08C8007908C7007808C600FF
:100AE0007708C5004E08D5004D08D4002A24D3014C
:100AF000D201D1018E30D0007A08D7007908D60013
:100B00007808D5007708D40047247A08CC00790803
:100B1000CB007808CA007708C9004808D300470806
:100B2000D2004608D1004508D0000B247908D50032
:100B30007808D4002A2483104C08D7004B08D6002C
:100B40004A08D5004908D4007A08DB007908DA00A1
:100B50007808D9007708D800C1217A08CC00790834
:100B6000CB007808CA007708C900BE2D4808CC0021
:100B70004708CB004608CA004508C9004808D3000A
:100B80004708D2004608D1004508D0000B24790858
:100B9000D5007808D4002A2483144808D7004708D1
:100BA000D6004608D5004508D4007A08DB0079084D
:100BB000DA007808D9007708D800C1217A08C8007F
:100BC0007908C7007808C6007708C5004F1CEB2DD0
:100BD0004A08803ACA004808D3004708D2004608AD
:100BE000D1004508D000D701D601D501D401CC23CE
:100BF0000319132E4F1C132E83144C08D7004B08D7
:100C0000D6004A08D5004908D400DB01DA01D90131
:100C10007F30D800C1217A08CC007908CB00780851
:100C2000CA007708C9004408D3004308D20042082C
:100C3000D1004108D000D701D601D501D401CC2381
:100C4000031D262ECC01CB01CA01C9014908F700BA
:100C50004A08F8004B08F9004C08FA0008003D0863
:100C6000B63CBD00FA013E08C100BE170310BE0C21
:100C7000BF0CC00CFA0CF90CF80CF70CBD0B362E9F
:100C8000C11F4D2EF709F809F909FA09F70A0319E6
:100C9000F80A0319F90A0319FA0A080039153C1071
:100CA0003C0883168700831207103808C2003708F3
:100CB000C1004008C6003F08C5003E08C4003D080A
:100CC000C300FF30C307031CC407031CC507031C74
:100CD000C607C308031D752EC408031D752EC5085D
:100CE000031D752EC60803198D2E41083702031DFA
:100CF0007D2E4208380203198C2E4008C6003F089A
:100D0000C5003E08C4003D08C3003808C2003708CB
:100D1000C1001E30C8009221612EB801B7013C10FD
:100D20003C0883168700831207140C30C700FA3082
:100D3000C8009221C70B972E83168C148312391189
:100D40008A150A129C29BC133C088316870083125B
:100D5000871339143911080039153C133C088316E0
:100D6000870083120713BC133C0883168700831285
:100D7000871308003C133C0883168700831207136F
:100D8000391139100800B81BCC2EB808031DDC2E11
:100D90003708C83C031CDC2EB81FDA2E3808FF3C8D
:100DA000031CDA2E031DD82E3708383C031CDA2E1C
:100DB0008A010028A326C32EAC26B81BE12EAC2640
:100DC000DD2EB81FEE2E3808FE3C0318F02EFF3A39
:100DD000031DEE2E3708373C0318F02EBA26E12EFD
:100DE000AC26B81BFA2EB808031DFC2E3708003CB1
:100DF000031CFC2EAC26F12EB81B082F3808013C32
:100E0000031C0A2F031D082F3708903C031C0A2FD0
:100E1000A326FC2EAC26B81B0F2FAC260B2FB81F19
:100E20001C2F3808FD3C03181E2FFF3A031D1C2FF2
:100E300037086F3C03181E2FBA260F2FAC26B81B9D
:100E4000282FB808031D2A2F3708003C031C2A2F1F
:100E5000AC261F2FB81B362F3808033C031C382F35
:100E6000031D362F3708203C031C382FA3262A2FBA
:100E7000AC26B81B3D2FAC26392FB81F4A2F380897
:100E8000FB3C03184C2FFF3A031D4A2F3708DF3C69
:100E900003184C2FBA263D2FAC26B81B562FB80886
:100EA000031D582F3708003C031C582FAC264D2F2C
:100EB000B81B642F3808043C031C662F031D642FE5
:100EC0003708B03C031C662FA326582FAC26B91058
:100ED0008A150A12A729B81B7A2F3808003C031874
:100EE0007A2FFF3A031D782F37088F3C03187A2F8B
:100EF000AC266B2FB81F872F3808FB3C0318892FAF
:100F0000FF3A031D872F3708DF3C0318892FBA26C5
:100F10007A2FAC26B81F982F3808FE3C031C982F58
:100F2000031D962F3708703C031C982FAC268A2F80
:100F3000B81BA42F3808033C031CA62F031DA42FA5
:100F40003708203C031CA62FA326982FAC268A1511
:040F50000A12B429A4
:1010000003081F398300AA01A901A801A701AE01A5
:10101000AD01AC01AB01B201B101B001AF01B6014C
:10102000B501B401B301B801B7013914B9143915C8
:10103000BB01BA01FF30BC00831603170908C03991
:10104000890003131F129F120030031788008312B8
:1010500087018801890183138316031307158714F9
:1010600006148712881108110710871307138A11B5
:101070008312F7288A152708043C031D6F28A80847
:10108000031D6F28A908031D6F28AA08031D6F28D8
:10109000BC123C0883168700831287166430C80090
:1010A0008A1192218A15BC123C088316870083128C
:1010B00087126430C8008A1192218A15BC123C083C
:1010C00083168700831287166430C8008A11922124
:1010D0008A15BC123C0883168700831287122A08DF
:1010E000C0002908BF002808BE002708BD008A11DB
:1010F000A6218A1583141730D700B730D600513097
:10110000D5008230D4007A08DB007908DA0078084C
:10111000D9007708D8008A11C1218A157A08C00041
:101120007908BF007808BE007708BD004008C400F9
:101130003F08C3003E08C2003D08C1001730C80088
:10114000B730C7005130C6007A30C5008A1102237B
:101150008A157A08C0007908BF007808BE007708B1
:10116000BD004008C4003F08C3003E08C2003D085F
:10117000C1008A11BC248A157A08C0007908BF0012
:101180007808BE007708BD008A112F268A157A08D4
:10119000C0007908BF007808BE007708BD000130A4
:1011A0003D02AF003E08B0000030031C0130B00229
:1011B0003F08B1000030031C0130B1024008B2000A
:1011C0000030031C0130B2022E08C0002D08BF0001
:1011D0002C08BE002B08BD008A11A6218A15831495
:1011E0001730D700B730D6005130D5008230D40048
:1011F0007A08DB007908DA007808D9007708D80087
:101200008A11C1218A157A08C0007908BF007808C0
:10121000BE007708BD004008C4003F08C3003E0878
:10122000C2003D08C1001730C800B730C7005130B8
:10123000C6007A30C5008A1102238A157A08C000D8
:101240007908BF007808BE007708BD004008C400D8
:101250003F08C3003E08C2003D08C1008A11BC24FB
:101260008A157A08C0007908BF007808BE007708A0
:10127000BD008A112F268A157A08C0007908BF00A0
:101280007808BE007708BD0001303D02B3003E087B
:10129000B4000030031C0130B4023F08B500003038
:1012A000031C0130B5024008B6000030031C0130B9
:1012B000B60283160811831208118316881183124F
:1012C0008811BC123C0883168700831287128B108A
:1012D0000B16831601130108C039073881008312E9
:1012E0008B163C153C088316870083129701043047
:1012F000970083169B019C0101309D0005308312ED
:10130000900083160C157830F8000638831292008E
:10131000FF308316920083129101C0308B04831634
:10132000081183120815C0011630BF00E330BE005B
:101330006030BD008A114E2E8A1583160811831263
:10134000081183168811831288158A11C32E8A15F5
:101350008316881183128811BC123C0883168700FB
:0E136000831287168A116B2F8A15B22963003B
:04400E00E22CFF3F62
:00000001FF
;PIC16F887
;CRC=160C  CREATED="23-Apr-20 06:47"
