:1000000008308A0000280000FF00030E8301A100D1
:100010000A08A0008A010408A2007708A300780853
:10002000A4007908A5007A08A600831383120B1E8A
:100030001B288B183C288C308400801C21288C18AD
:100040003F288C308400001D27280C1942288B1E65
:100050002B280B194528220884002308F7002408C0
:10006000F8002508F9002608FA0020088A00210E69
:100070008300FF0E7F0E09008A110A1248288A1198
:100080000A127C288A110A12E9288A110A126228A7
:100090003C133C088316870083120713BC133C08EB
:1000A0008316870083128713B91C59282F088100F3
:1000B0005B28330881000B118B168B108B108A1173
:1000C0000A122B28391C6D2839196D283C133C085D
:1000D000831687008312071777283918772839196C
:1000E0007728BC133C0883168700831287178B126E
:1000F0000B118A110A122B28BB1F8128B81F8D28CB
:100100008328B81B95283B083802031C9528031D3B
:100110008D283A083702031C95283C103C088316AA
:100120008700831207108A010028FF30E500E400F1
:100130003B08E7003A08E600650867068039E900F1
:10014000E51FA728E409E509E40A0319E50AE71F02
:10015000AE28E609E709E60A0319E70A1030E800C5
:10016000F701FA01E50CE40C031CBC286608F7074C
:100170000318FA0A6708FA07FA0CF70CF90CF80CDE
:10018000E80BB228E91FC928F809F909F80A031988
:10019000F90A7908FA007808B81FD128FA1FDD2873
:1001A000D328FA1BE52838087A02031CE528031D2A
:1001B000DD2837087802031CE5283C103C0883162C
:1001C0008700831207108A0100288C108A110A12F6
:1001D0002B28871CEF28B70A0319B80AF328370819
:1001E0000319B803B7030C118A110A122B28B63071
:1001F000F700FA01F901F8013D083E043F0440040C
:10020000031D0429F70111290310F81B1029BD0D46
:10021000BE0DBF0DC00DFA0DF90DF80DF70B042939
:10022000F813080080308318D906DE01DF01550875
:10023000DD005908DD0654080319022ADC00F70026
:10024000580803190B2ADC020319A729031C652986
:100250005908E200E2175A08E1005B08E000DF01FC
:100260000310E20CE10CE00CDF0CDC0B2F29DD1F8E
:100270003C295E141F2A5E105C105E165730840005
:100280008313342A5E12DD1B4F295C1C5A29E20CB1
:10029000E10CE00CDF0CF70A03191A2A5A29E21BB9
:1002A0005D290310DF0DE00DE10DE20DF7030319E9
:1002B0001A2A4F295E17C7295E135508DD00DD1F76
:1002C0006329E217132AE213132A5808DC00F70007
:1002D0005408DC025508E200E2175608E10057080E
:1002E000E000DF010310E20CE10CE00CDF0CDC0BA2
:1002F0007129DD1F7E29DE141F2ADE105C10DE1638
:100300005B3084008313342ADE12DD1B91295C1CD0
:100310009C29E20CE10CE00CDF0CF70A03191A2A05
:100320009C29E21B9F290310DF0DE00DE10DE20D7A
:10033000F70303191A2A9129DE17C729DE13590872
:10034000DD00DD1FA529E217132AE213132A59083D
:10035000E200E2175A08E1005B08E000DD1FB42963
:10036000E2135E151F2A5E11DF015C105730840016
:100370008313342ADD1BDD295508DD005C1CC729E9
:10038000E20CE10CE00CDF0CF70A03191A2ADF1F5C
:10039000D829E00A031DD829E10A031DD829E20A59
:1003A000031DD829E20CE10CE00CF70A03191A2A04
:1003B0005E1B5C29DE1B9E29FC298030E206E21FC1
:1003C000E5291F2A5908DD00F2295508DD00E20859
:1003D000031DF229E108031DF229E008031DF2299B
:1003E000F701132AE21BFC290310DF0DE00DE10DDC
:1003F000E20DF70BF2291A2ADD1F002AE217132A51
:10040000E213132A5808F7005908E2005A08E100DD
:100410005B08E000132A5408F7005508E20056086C
:10042000E1005708E0006208F8006108F900600880
:10043000FA00522AF701F801F901FA01522ADF0104
:10044000E009E109E209DF09DF0A031D2D2AE00ABC
:10045000031D2D2AE10A0319E20A5E183B29DE1862
:100460007D295E19B329E2290008E007031C3E2A12
:10047000E10A031D3E2AE20A03195C148403000802
:10048000E107031C462AE20A03195C1484030008EE
:10049000801F803AE20703185C145E1A4229DE1AB4
:1004A0008429BA29080041080319182BCD004508F2
:1004B0000319182BCD02031C622A7F30CD070318C5
:1004C000182B682A8130CD02031C182B0319182B16
:1004D0004D08F700F801F901FA01CC014208CB0000
:1004E000CB174308CA004408C9001930CD0048089A
:1004F000C90203188B2A0130CA0203188B2ACB02C7
:1005000003188B2ACC0203188B2ACC0ACB0ACA0AFE
:100510004808C907BD2A4708CA020318A62A01309D
:10052000CB020318A62ACC020318A62ACC0ACB0AAF
:100530004708CA074808C907031CBD2ACA0A031D81
:10054000BD2ACB0A031DBD2ACC0ABD2A4608803825
:10055000CB020318BC2A0130CC020318BC2ACC0AF7
:1005600046088038CB074708CA07031C9A2ACB0ADB
:10057000031D9A2ACC0A9A2A7A14CD0BC02ACB2AB8
:100580000310C90DCA0DCB0DCC0D0310FA0DF90DDA
:10059000F80DCE0D772A4E1CD32A0310F80CF90C57
:1005A000FA0CCE0CD62AF7030319182BCE1BFF2A00
:1005B0000310C90DCA0DCB0DCC0D4808C902031894
:1005C000EB2A0130CA020318EB2ACB020318EB2AEC
:1005D000CC02031C0E2B4708CA020318F62A01306E
:1005E000CB020318F62ACC02031C0E2B46088038D7
:1005F000CB020318FF2A0130CC02031C0E2BFA0A8F
:10060000031D0E2BF90A031D0E2BF80A031D0E2BDA
:10061000F70A0319182BF80CF90CFA0C4208CD0054
:100620004608CD06CD1F162BF8171C2BF8131C2BD4
:10063000F701F801F901FA0108005108D80055083E
:10064000D806D81F282B03110310D11B03145B2BD2
:100650005108D8005408D9005008D9020319362B84
:10066000D81F5B2B0308013A83005B2B5508D90088
:100670005108D9020319422BD81F5B2B0308013AFA
:1006800083005B2B5608D9005208D90203194E2B60
:10069000D81F5B2B0308013A83005B2B5708D90056
:1006A0005308D90203195A2BD81F5B2B0308013AB0
:1006B00083005B2B031008008E30F7005008F70210
:1006C0005108F9005208F800F917F7080319732BBD
:1006D0000310F908031D6F2BF8080319732BF90C8D
:1006E000F80CF70B682BD11F7A2BF809F909F80AD7
:1006F0000319F90A08008E30F7005508F80054086D
:10070000F900FA01F808031D8F2B7908F800F901A8
:100710000830F702F808031D8F2BF701972B031001
:10072000F81B962BF90DF80DF7038F2BF813080023
:1007300050080319082CD80054080319082CD807AE
:100740000318A92B7F30D802031C082C0319082C8E
:10075000AD2B8130D8070318082C5808F700F80192
:10076000F901FA015108DC00DC175208DB005308DC
:10077000DA001830D800D9015A1CD62B5708FA07CE
:10078000031CC82BF90A031DC82BF80A0319D91733
:100790005608F907031CCF2BF80A0319D917550877
:1007A000D200D2175208F8070318D917D90DF80C40
:1007B000F90CFA0CDC0CDB0CDA0C0310D80BBB2B9D
:1007C0000130F7070318082CF81BED2BDC0DFA0D90
:1007D000F90DF80DF7030319082CDC1FFE2BFA0A9C
:1007E000031DFE2BF90A031DFE2BF80A031DFE2B29
:1007F000F80CF90CFA0CF70A0319082C5108D90067
:100800005508D906D91F062CF8170C2CF8130C2CF8
:10081000F701F801F901FA0108004F104408C80077
:100820004308C7004208C6004108C5004408D30079
:100830004308D2004208D1004108D000D701D601B8
:10084000D501D4011D23031C292C4F144608803ADE
:10085000C6004808D3004708D2004608D100450822
:10086000D000D701D601D5018E30D4001D23031846
:100870003B2C031D522C4808D3004708D2004608E1
:10088000D1004508D0005C237908D5007808D40051
:100890007B237A08CC007908CB007808CA00770857
:1008A000C9000F2D4808D3004708D2004608D100E0
:1008B0004508D0008030D7009630D6001830D500DB
:1008C0009630D4001D23031C072D4808D300470889
:1008D000D2004608D1004508D000D701D601D50185
:1008E0007030D40098237A08D3007908D2007808B1
:1008F000D1007708D0005C237908CE007808CD00BD
:100900004808D3004708D2004608D1004508D00067
:10091000D701D601D5017030D40098237A08D300CE
:100920007908D2007808D1007708D0004E08D500A9
:100930004D08D4007B2383145308D7005208D600F7
:100940005108D5005008D4007A08DB007908DA0095
:100950007808D9007708D8001221D301D201D1013B
:100960008E30D0007A08D7007908D6007808D500F4
:100970007708D40098237A08C8007908C700780857
:10098000C6007708C5004E08D5004D08D4007B236B
:10099000D301D201D1018E30D0007A08D700790876
:1009A000D6007808D5007708D40098237A08CC00C0
:1009B0007908CB007808CA007708C9004808D30036
:1009C0004708D2004608D1004508D0005C237908CA
:1009D000D5007808D4007B2383104C08D7004B083F
:1009E000D6004A08D5004908D4007A08DB00790807
:1009F000DA007808D9007708D80012217A08CC00EC
:100A00007908CB007808CA007708C9000F2D48087C
:100A1000CC004708CB004608CA004508C900480872
:100A2000D3004708D2004608D1004508D0005C2317
:100A30007908D5007808D4007B2383144808D700B0
:100A40004708D6004608D5004508D4007A08DB00E0
:100A50007908DA007808D9007708D80012217A08D6
:100A6000C8007908C7007808C6007708C5004F1C81
:100A70003C2D4A08803ACA004808D3004708D200F3
:100A80004608D1004508D000D701D601D501D401D0
:100A90001D230319642D4F1C642D83144C08D700AB
:100AA0004B08D6004A08D5004908D400DB01DA011A
:100AB000D9017F30D80012217A08CC007908CB0008
:100AC0007808CA007708C9004408D3004308D20058
:100AD0004208D1004108D000D701D601D501D40188
:100AE0001D23031D772DCC01CB01CA01C901490883
:100AF000F7004A08F8004B08F9004C08FA00080013
:100B00003D08B63CBD00FA013E08C100BE17031007
:100B1000BE0CBF0CC00CFA0CF90CF80CF70CBD0B9A
:100B2000872DC11F9E2DF709F809F909FA09F70A5F
:100B30000319F80A0319F90A0319FA0A08004830D8
:100B40008400831300080319B22D0630F800F70162
:100B5000F70BA82DF80BA72D7B30F700F70BAE2D68
:100B6000800BA52D080039153C103C088316870022
:100B7000831207103808C2003708C1004008C600B9
:100B80003F08C5003E08C4003D08C300FF30C3074E
:100B9000031CC407031CC507031CC607C308031DA9
:100BA000DA2DC408031DDA2DC508031DDA2DC60889
:100BB0000319F22D41083702031DE22D42083802C5
:100BC0000319F12D4008C6003F08C5003E08C400C7
:100BD0003D08C3003808C2003708C1001E30C800F5
:100BE0009F25C62DB801B7013C103C08831687002D
:100BF000831207140C30C700FA30C8009F25C70BBA
:100C0000FC2D83168C14831239118A150A12FB29C4
:100C1000BC133C08831687008312871339143911DB
:100C2000080039153C133C0883168700831207130C
:100C3000BC133C08831687008312871308003C13FB
:100C40003C088316870083120713391139100800F6
:100C5000B81B312EB808031D412E3708C83C031CB1
:100C6000412EB81F3F2E3808FF3C031C3F2E031DAA
:100C70003D2E3708383C031C3F2E8A0100280826E9
:100C8000282E1126B81B462E1126422EB81F532E91
:100C90003808FE3C0318552EFF3A031D532E370823
:100CA000373C0318552E1F26462E1126B81B5F2EE3
:100CB000B808031D612E3708003C031C612E112665
:100CC000562EB81B6D2E3808013C031C6F2E031DD9
:100CD0006D2E3708903C031C6F2E0826612E1126BE
:100CE000B81B742E1126702EB81F812E3808FD3CBB
:100CF0000318832EFF3A031D812E37086F3C03181B
:100D0000832E1F26742E1126B81B8D2EB808031DA6
:100D10008F2E3708003C031C8F2E1126842EB81B03
:100D20009B2E3808033C031C9D2E031D9B2E370869
:100D3000203C031C9D2E08268F2E1126B81BA22EA8
:100D400011269E2EB81FAF2E3808FB3C0318B12E7B
:100D5000FF3A031DAF2E3708DF3C0318B12E1F26C4
:100D6000A22E1126B81BBB2EB808031DBD2E3708B6
:100D7000003C031CBD2E1126B22EB81BC92E38080C
:100D8000043C031CCB2E031DC92E3708B03C031CAA
:100D9000CB2E0826BD2E1126B9108A150A12062A56
:100DA000B81BDF2E3808003C0318DF2EFF3A031D66
:100DB000DD2E37088F3C0318DF2E1126D02EB81FEA
:100DC000EC2E3808FB3C0318EE2EFF3A031DEC2EE8
:100DD0003708DF3C0318EE2E1F26DF2E1126B81F22
:100DE000FD2E3808FE3C031CFD2E031DFB2E37088C
:100DF000703C031CFD2E1126EF2EB81B092F38085E
:100E0000033C031C0B2F031D092F3708203C031C38
:0E0E10000B2F0826FD2E11268A150A12132A12
:1010000003081F398300AA01A901A801A701AE01A5
:10101000AD01AC01AB01B201B101B001AF01B6014C
:10102000B501B401B301B801B7013914B9143915C8
:10103000BB01BA01FF30BC00831603170908C03991
:10104000890003131F129F120030031788008312B8
:1010500087018801890183138316031307158714F9
:1010600006148712881108110710871307138816B2
:1010700008178614061586150616861683120608A6
:10108000303903194D28103A03195328303A0319FF
:101090005928103A03195F286428AA01A901A80158
:1010A0000130A7006428AA01A901A8010230A70005
:1010B0006428AA01A901A8010330A7006428AA0195
:1010C000A901A8010430A70006080E3903197E28DB
:1010D000023A03198428063A03198A28023A0319A6
:1010E00090280E3A03199628023A03199C28063ACA
:1010F0000319A228023A0319A828AD28AE01AD01B0
:10110000AC010230AB00AD28AE01AD01AC01033043
:10111000AB00AD28AE01AD01AC010430AB00AD2891
:10112000AE01AD01AC010530AB00AD28AE01AD01A3
:10113000AC010630AB00AD28AE01AD01AC0107300B
:10114000AB00AD28AE01AD01AC010830AB00AD285D
:10115000AE01AD01AC010930AB00080860390319DC
:10116000BB28203A0319C028603A0319C528203A41
:101170000319CA28CE280730BB00D030BA00CE28C9
:101180000930BB006030BA00CE280A30BB00F03016
:10119000BA00CE280C30BB008030BA002A08C0004C
:1011A0002908BF002808BE002708BD008A11F720C3
:1011B0008A1583141730D700B730D6005130D500C8
:1011C0008230D4007A08DB007908DA007808D90088
:1011D0007708D8008A1112218A157A08C000790888
:1011E000BF007808BE007708BD004008C4003F0873
:1011F000C3003E08C2003D08C1001730C800B73028
:10120000C7005130C6007A30C5008A1153228A15B2
:101210007A08C0007908BF007808BE007708BD00D2
:101220004008C4003F08C3003E08C2003D08C1009A
:101230008A110D248A157A08C0007908BF00780841
:10124000BE007708BD008A1180258A157A08C00083
:101250007908BF007808BE007708BD0001303D0264
:10126000AF003E08B0000030031C0130B0023F0860
:10127000B1000030031C0130B1024008B200003060
:10128000031C0130B2022E08C0002D08BF002C083C
:10129000BE002B08BD008A11F7208A158314173071
:1012A000D700B730D6005130D5008230D4007A084C
:1012B000DB007908DA007808D9007708D8008A11AD
:1012C00012218A157A08C0007908BF007808BE008C
:1012D0007708BD004008C4003F08C3003E08C200B4
:1012E0003D08C1001730C800B730C7005130C600F4
:1012F0007A30C5008A1153228A157A08C00079080D
:10130000BF007808BE007708BD004008C4003F0851
:10131000C3003E08C2003D08C1008A110D248A1591
:101320007A08C0007908BF007808BE007708BD00C1
:101330008A1180258A157A08C0007908BF007808CC
:10134000BE007708BD0001303D02B3003E08B40086
:101350000030031C0130B4023F08B5000030031C0C
:101360000130B5024008B6000030031C0130B6025F
:1013700083160811831208118316881183128811AD
:10138000BC123C0883168700831287128B100B1641
:10139000831601130108C0390738810083128B16A8
:1013A0003C153C0883168700831297010430970090
:1013B00083169B019C0101309D0005308312900033
:1013C00083160C157830F800063883129200FF302F
:1013D0008316920083129101C0308B04831608118A
:1013E00083120815C0011630BF00E330BE00603024
:1013F000BD008A11B32D8A158316081183120811B6
:1014000083168811831288158A11282E8A1583164F
:10141000881183128811BC123C088316870083123E
:0C14200087168A11D02E8A15112A63004D
:04400E00E22CFF3F62
:00000001FF
;PIC16F887
;CRC=F86C  CREATED="23-Apr-20 01:10"
