:1000000008308A0000280000FF00030E8301A100D1
:100010000A08A0008A010408A2007708A300780853
:10002000A4007908A5007A08A600831383120B1E8A
:100030001B288B1842288C308400801C21288C18A7
:1000400045288C308400001D27280C1948288B1E59
:100050002B280B194B288D308400001F31280D1BD5
:100060004E28220884002308F7002408F8002508F9
:10007000F9002608FA0020088A00210E8300FF0EEE
:100080007F0E09008A110A125F288A110A1293282A
:100090008A110A12CB288A110A1279288A110A12A7
:1000A000512883161C088312EC00C21042088316E4
:1000B0008700831287100D138A110A123128421308
:1000C00042088316870083120713C213420883165F
:1000D000870083128713C11C70283308810072289F
:1000E000370881000B118B168B108B108A110A12A6
:1000F0003128411C84284119842842134208831660
:100100008700831207178E2841188E2841198E28E0
:10011000C213420883168700831287178B120B11B4
:100120008A110A1231283F080319C003BF033F0890
:100130004004031DC728411CB128BC1BB0283C0843
:10014000053C0318B028FF3A031DAA283B083F3C92
:100150000318B028C2104208831687008312871044
:10016000C328BC1FC3283C08F93C031CC328031D3B
:10017000BD283B08C03C031CC328C210420883169C
:100180008700831287101D30C000EC30BF008C1038
:100190008A110A123128071CD128BB0A0319BC0A8C
:1001A000D5283B080319BC03BB030C118A110A12A2
:1001B00031288E30F7005D08F8005C08F900FA017C
:1001C000F808031DED287908F800F9010830F70256
:1001D000F808031DED28F701F5280310F81BF42893
:1001E000F90DF80DF703ED28F81308008030831897
:1001F000E106E601E7015D08E5006108E5065C0847
:100200000319E629E400F70060080319EF29E40266
:1002100003198B29031C49296108EA00EA176208BF
:10022000E9006308E800E7010310EA0CE90CE80CB8
:10023000E70CE40B1329E51F20296614032A661036
:10024000641066165F3084008313182A6612E51B5B
:100250003329641C3E29EA0CE90CE80CE70CF70A88
:100260000319FE293E29EA1B41290310E70DE80D79
:10027000E90DEA0DF7030319FE2933296617AB29A7
:1002800066135D08E500E51F4729EA17F729EA1319
:10029000F7296008E400F7005C08E4025D08EA0062
:1002A000EA175E08E9005F08E800E7010310EA0CBE
:1002B000E90CE80CE70CE40B5529E51F6229E6146C
:1002C000032AE6106410E616633084008313182AAC
:1002D000E612E51B7529641C8029EA0CE90CE80C80
:1002E000E70CF70A0319FE298029EA1B832903106A
:1002F000E70DE80DE90DEA0DF7030319FE2975294D
:10030000E617AB29E6136108E500E51F8929EA171E
:10031000F729EA13F7296108EA00EA176208E900F9
:100320006308E800E51F9829EA136615032A661199
:10033000E70164105F3084008313182AE51BC1298C
:100340005D08E500641CAB29EA0CE90CE80CE70C3D
:10035000F70A0319FE29E71FBC29E80A031DBC2977
:10036000E90A031DBC29EA0A031DBC29EA0CE90CB1
:10037000E80CF70A0319FE29661B4029E61B8229AF
:10038000E0298030EA06EA1FC929032A6108E5004E
:10039000D6295D08E500EA08031DD629E908031DF2
:1003A000D629E808031DD629F701F729EA1BE02919
:1003B0000310E70DE80DE90DEA0DF70BD629FE292C
:1003C000E51FE429EA17F729EA13F7296008F7007F
:1003D0006108EA006208E9006308E800F7295C08A0
:1003E000F7005D08EA005E08E9005F08E8006A08B7
:1003F000F8006908F9006808FA00362AF701F801E0
:10040000F901FA01362AE701E809E909EA09E709E9
:10041000E70A031D112AE80A031D112AE90A031934
:10042000EA0A66181F29E618612966199729C6295C
:100430000008E807031C222AE90A031D222AEA0A07
:100440000319641484030008E907031C2A2AEA0A32
:100450000319641484030008801F803AEA07031814
:100460006414661A2629E61A68299E290800490894
:100470000319FC2AD5004D080319FC2AD502031CD8
:10048000462A7F30D5070318FC2A4C2A8130D50232
:10049000031CFC2A0319FC2A5508F700F801F9018E
:1004A000FA01D4014A08D300D3174B08D2004C08F4
:1004B000D1001930D5005008D10203186F2A01303D
:1004C000D20203186F2AD30203186F2AD40203182A
:1004D0006F2AD40AD30AD20A5008D107A12A4F089A
:1004E000D20203188A2A0130D30203188A2AD402BE
:1004F00003188A2AD40AD30A4F08D2075008D10712
:10050000031CA12AD20A031DA12AD30A031DA12A72
:10051000D40AA12A4E088038D3020318A02A013039
:10052000D4020318A02AD40A4E088038D3074F08F3
:10053000D207031C7E2AD30A031D7E2AD40A7E2AF0
:100540007A14D50BA42AAF2A0310D10DD20DD30DE6
:10055000D40D0310FA0DF90DF80DD60D5B2A561CBB
:10056000B72A0310F80CF90CFA0CD60CBA2AF703C8
:100570000319FC2AD61BE32A0310D10DD20DD30D8B
:10058000D40D5008D1020318CF2A0130D20203182B
:10059000CF2AD3020318CF2AD402031CF22A4F0811
:1005A000D2020318DA2A0130D3020318DA2AD4025D
:1005B000031CF22A4E088038D3020318E32A0130C4
:1005C000D402031CF22AFA0A031DF22AF90A031DB7
:1005D000F22AF80A031DF22AF70A0319FC2AF80C7A
:1005E000F90CFA0C4A08D5004E08D506D51FFA2A90
:1005F000F817002BF813002BF701F801F901FA01A5
:1006000008005908E0005D08E006E01F0C2B03110C
:100610000310D91B03143F2B5908E0005C08E100CC
:100620005808E10203191A2BE01F3F2B0308013A77
:1006300083003F2B5D08E1005908E1020319262BD6
:10064000E01F3F2B0308013A83003F2B5E08E100C7
:100650005A08E1020319322BE01F3F2B0308013A2D
:1006600083003F2B5F08E1005B08E10203193E2B8A
:10067000E01F3F2B0308013A83003F2B03100800C3
:100680008E30F7005808F7025908F9005A08F800A8
:10069000F917F7080319572B0310F908031D532BFB
:1006A000F8080319572BF90CF80CF70B4C2BD91F32
:1006B0005E2BF809F909F80A0319F90A0800580825
:1006C0000319CF2BE0005C080319CF2BE0070318B8
:1006D000702B7F30E002031CCF2B0319CF2B742B20
:1006E0008130E0070318CF2B6008F700F801F9010B
:1006F000FA015908E400E4175A08E3005B08E20035
:100700001830E000E101621C9D2B5F08FA07031C12
:100710008F2BF90A031D8F2BF80A0319E1175E08C6
:10072000F907031C962BF80A0319E1175D08DA0094
:10073000DA175A08F8070318E117E10DF80CF90C5D
:10074000FA0CE40CE30CE20C0310E00B822B0130FA
:10075000F7070318CF2BF81BB42BE40DFA0DF90D96
:10076000F80DF7030319CF2BE41FC52BFA0A031D5D
:10077000C52BF90A031DC52BF80A031DC52BF80C60
:10078000F90CFA0CF70A0319CF2B5908E1005D08A0
:10079000E106E11FCD2BF817D32BF813D32BF7016C
:1007A000F801F901FA01080057104C08D0004B0875
:1007B000CF004A08CE004908CD004C08DB004B08AA
:1007C000DA004A08D9004908D800DF01DE01DD015E
:1007D000DC010123031CF02B57144E08803ACE0095
:1007E0005008DB004F08DA004E08D9004D08D80049
:1007F000DF01DE01DD018E30DC0001230318022C55
:10080000031D192C5008DB004F08DA004E08D900F0
:100810004D08D80040237908DD007808DC00D92095
:100820007A08D4007908D3007808D2007708D1007C
:10083000D62C5008DB004F08DA004E08D9004D08CE
:10084000D8008030DF009630DE001830DD009630B2
:10085000DC000123031CCE2C5008DB004F08DA001B
:100860004E08D9004D08D800DF01DE01DD017030EF
:10087000DC005F237A08DB007908DA007808D90009
:100880007708D80040237908D6007808D5005008AA
:10089000DB004F08DA004E08D9004D08D800DF0110
:1008A000DE01DD017030DC005F237A08DB007908AF
:1008B000DA007808D9007708D8005608DD00550816
:1008C000DC00D92083145B08DF005A08DE005908D9
:1008D000DD005808DC007A08E3007908E2007808B7
:1008E000E1007708E000F620DB01DA01D9018E3063
:1008F000D8007A08DF007908DE007808DD00770884
:10090000DC005F237A08D0007908CF007808CE0099
:100910007708CD005608DD005508DC00D920DB0142
:10092000DA01D9018E30D8007A08DF007908DE00BC
:100930007808DD007708DC005F237A08D4007908A6
:10094000D3007808D2007708D1005008DB004F08A8
:10095000DA004E08D9004D08D80040237908DD00A0
:100960007808DC00D92083105408DF005308DE002B
:100970005208DD005108DC007A08E3007908E20043
:100980007808E1007708E000F6207A08D4007908BA
:10099000D3007808D2007708D100D62C5008D400B4
:1009A0004F08D3004E08D2004D08D1005008DB009C
:1009B0004F08DA004E08D9004D08D80040237908C6
:1009C000DD007808DC00D92083145008DF004F08D0
:1009D000DE004E08DD004D08DC007A08E3007908EF
:1009E000E2007808E1007708E000F6207A08D000FD
:1009F0007908CF007808CE007708CD00571C032D6A
:100A00005208803AD2005008DB004F08DA004E0846
:100A1000D9004D08D800DF01DE01DD01DC01012332
:100A200003192B2D571C2B2D83145408DF0053085A
:100A3000DE005208DD005108DC00E301E201E101C3
:100A40007F30E000F6207A08D4007908D3007808D7
:100A5000D2007708D1004C08DB004B08DA004A08C6
:100A6000D9004908D800DF01DE01DD01DC010123E6
:100A7000031D3E2DD401D301D201D1015108F7004D
:100A80005208F8005308F9005408FA000800450815
:100A9000B63CC500FA014608C900C6170310C60CCB
:100AA000C70CC80CFA0CF90CF80CF70CC50B4E2D42
:100AB000C91F652DF709F809F909FA09F70A031999
:100AC000F80A0319F90A0319FA0A08004E308400DB
:100AD000831300080319792D0630F800F701F70B8E
:100AE0006F2DF80B6E2D7B30F700F70B752D800BFB
:100AF0006C2D08004115C21042088316870083122E
:100B000087103C08C8003B08C7004608CC004508D1
:100B1000CB004408CA004308C900FF30C907031CC2
:100B2000CA07031CCB07031CCC07C908031DA12D52
:100B3000CA08031DA12DCB08031DA12DCC08031944
:100B4000B92D47083B02031DA92D48083C02031993
:100B5000B82D4608CC004508CB004408CA0043081D
:100B6000C9003C08C8003B08C7001E30CE006625FF
:100B70008D2DBC01BB01C210420883168700831271
:100B800087140C30CD00FA30CE006625CD0BC32D76
:100B900083168C14831241118A150A127729C21305
:100BA00042088316870083128713411441110800FD
:100BB0004115421342088316870083120713C2139C
:100BC00042088316870083128713080042134208E5
:100BD0008316870083120713411141100800BC1BC4
:100BE000F82DBC08031DFA2D3B08C83C031CFA2D48
:100BF000CF25EF2DD825BC1BFF2DD825FB2DBC1FE5
:100C00000C2E3C08FE3C03180E2EFF3A031D0C2E42
:100C10003B08373C03180E2EE625FF2DD825BC1BBC
:100C2000182EBC08031D1A2E3B08003C031C1A2E6C
:100C3000D8250F2EBC1B262E3C08013C031C282E59
:100C4000031D262E3B08903C031C282ECF251A2E70
:100C5000D825BC1B2D2ED825292EBC1F3A2E3C088A
:100C6000FD3C03183C2EFF3A031D3A2E3B086F3C17
:100C700003183C2EE6252D2ED825BC1B462EBC087D
:100C8000031D482E3B08003C031C482ED8253D2E52
:100C9000BC1B542E3C08033C031C562E031D542E33
:100CA0003B08203C031C562ECF25482ED825BC1BC4
:100CB0005B2ED825572EBC1F682E3C08FB3C031822
:100CC0006A2EFF3A031D682E3B08DF3C03186A2E8C
:100CD000E6255B2ED825BC1B742EBC08031D762E82
:100CE0003B08003C031C762ED8256B2EBC1B822EA5
:100CF0003C08043C031C842E031D822E3B08B03CA0
:100D0000031C842ECF25762ED825C1108A150A12F1
:100D10007A29BC1B982E3C08003C0318982EFF3AF9
:100D2000031D962E3B088F3C0318982ED825892E3C
:100D3000BC1FA52E3C08FB3C0318A72EFF3A031D41
:100D4000A52E3B08DF3C0318A72EE625982ED825B4
:100D5000BC1FB62E3C08FE3C031CB62E031DB42E51
:100D60003B08703C031CB62ED825A82EBC1BC22EF7
:100D70003C08033C031CC42E031DC22E3B08203C30
:100D8000031CC42ECF25B62ED8258A150A127D291C
:1010000003081F39830003178D0183168C130C14FA
:1010100083120C080313B100013003178D008316EF
:101020008C130C1483120C080313B200DD01310879
:10103000DC008A11D9208A1583141730DF00B730FD
:10104000DE005130DD008230DC007A08E3007908F0
:10105000E2007808E1007708E0008A11F6208A159E
:101060007A08C6007908C5007808C4007708C3006C
:101070004608CC004508CB004408CA004308C90014
:101080001730D000B730CF005130CE007A30CD00CD
:101090008A1137228A157A08C6007908C5007808AF
:1010A000C4007708C3004608CC004508CB004408BC
:1010B000CA004308C9008A11D4238A157A08C800D7
:1010C0007908C7007808C6007708C5008A11472547
:1010D0008A157A08C6007908C5007808C400770820
:1010E000C30001304302B3004408B4000030031CC5
:1010F0000130B4024508B5000030031C0130B502D0
:101100004608B6000030031C0130B602DD0132088B
:10111000DC008A11D9208A15C4010408C3004410D8
:10112000831B441483141730DF00B730DE005130C6
:10113000DD008230DC007A08E3007908E2007808FC
:10114000E1007708E0008A11F6208A154308840040
:101150008313441883177A08C8007908C7007808F1
:10116000C6007708C5004808CC004708CB004608F1
:10117000CA004508C9001730D000B730CF00513041
:10118000CE007A30CD008A1137228A157A08C8003D
:101190007908C7007808C6007708C5004808CC0061
:1011A0004708CB004608CA004508C9008A11D42365
:1011B0008A157A08C8007908C7007808C600770839
:1011C000C5008A1147258A157A08C8007908C70022
:1011D0007808C6007708C50001304502B700460808
:1011E000B8000030031C0130B8024708B9000030D5
:1011F000031C0130B9024808BA000030031C01305A
:10120000BA02BC01BB01BD01BE014114C1144115AC
:10121000FF30C20083161F149F141F159F11073043
:101220009C00831330308312A7003130A800323085
:10123000A9003330AA003430AB003530AC00363072
:10124000AD003730AE003830AF003930B000831613
:1012500006168614071507140614081287120811BB
:10126000881087108713071383128B100B168316B1
:1012700001130108C0390738810083128B1642150B
:101280004208831687008312970104309700853047
:10129000900083160C157830F800063883129200FF
:1012A000FF30831692001D308312C000EC30BF0067
:1012B0009101063083169C00050803388500103024
:1012C000F700F70B612900001C0883120D1385300D
:1012D00083169D000D17C03083128B04C601983011
:1012E000C5009630C4008030C3008A117A2D8A155B
:1012F0008A11EF2D8A158A11892E8A157B296300A0
:02400E00323F3F
:00000001FF
;PIC16F877A
;CRC=0A57  CREATED="16-Apr-20 11:32"
