:1000000008308A0000280000FF00030E8301A100D1
:100010000A08A0008A010408A2007708A300780853
:10002000A4007908A5007A08A600831383120B1E8A
:100030001B288B183C288C308400801C21288C18AD
:100040003F288C308400001D27280C1942288B1E65
:100050002B280B194528220884002308F7002408C0
:10006000F8002508F9002608FA0020088A00210E69
:100070008300FF0E7F0E09008A110A1248288A1198
:100080000A1274288A110A12E1288A110A125E28BB
:1000900083160810831208108316881083128810A4
:1000A000B91C55282F0881005728330881000B11EF
:1000B0008B168B108B108A110A122B28391C67287B
:1000C0003919672883160810831208146F28391805
:1000D0006F2839196F2883168810831288148B12A1
:1000E0000B118A110A122B28BB1F7928B81F8528EB
:1000F0007B28B81B8D283B083802031C8D28031D64
:1001000085283A083702031C8D283C103C088316CA
:100110008700831207108A010028FF30E500E40001
:100120003B08E7003A08E600650867068039E90001
:10013000E51F9F28E409E509E40A0319E50AE71F1A
:10014000A628E609E709E60A0319E70A1030E800DD
:10015000F701FA01E50CE40C031CB4286608F70764
:100160000318FA0A6708FA07FA0CF70CF90CF80CEE
:10017000E80BAA28E91FC128F809F909F80A0319A8
:10018000F90A7908FA007808B81FC928FA1FD52893
:10019000CB28FA1BDD2838087A02031CDD28031D52
:1001A000D52837087802031CDD283C103C0883164C
:1001B0008700831207108A0100288C108A110A1206
:1001C0002B28871CE728B70A0319B80AEB28370839
:1001D0000319B803B7030C118A110A122B28B63081
:1001E000F700FA01F901F8013D083E043F0440041C
:1001F000031DFC28F70109290310F81B0829BD0D70
:10020000BE0DBF0DC00DFA0DF90DF80DF70BFC2852
:10021000F813080080308318D906DE01DF01550885
:10022000DD005908DD0654080319FA29DC00F7003F
:1002300058080319032ADC0203199F29031C5D29AE
:100240005908E200E2175A08E1005B08E000DF010C
:100250000310E20CE10CE00CDF0CDC0B2729DD1FA6
:1002600034295E14172A5E105C105E165730840025
:1002700083132C2A5E12DD1B47295C1C5229E20CD9
:10028000E10CE00CDF0CF70A0319122A5229E21BD9
:1002900055290310DF0DE00DE10DE20DF703031901
:1002A000122A47295E17BF295E135508DD00DD1F9E
:1002B0005B29E2170B2AE2130B2A5808DC00F7002F
:1002C0005408DC025508E200E2175608E10057081E
:1002D000E000DF010310E20CE10CE00CDF0CDC0BB2
:1002E0006929DD1F7629DE14172ADE105C10DE1660
:1002F0005B30840083132C2ADE12DD1B89295C1CF1
:100300009429E20CE10CE00CDF0CF70A0319122A25
:100310009429E21B97290310DF0DE00DE10DE20D9A
:10032000F7030319122A8929DE17BF29DE1359089A
:10033000DD00DD1F9D29E2170B2AE2130B2A590865
:10034000E200E2175A08E1005B08E000DD1FAC297B
:10035000E2135E15172A5E11DF015C10573084002E
:1003600083132C2ADD1BD5295508DD005C1CBF2911
:10037000E20CE10CE00CDF0CF70A0319122ADF1F74
:10038000D029E00A031DD029E10A031DD029E20A81
:10039000031DD029E20CE10CE00CF70A0319122A24
:1003A0005E1B5429DE1B9629F4298030E206E21FE9
:1003B000DD29172A5908DD00EA295508DD00E20881
:1003C000031DEA29E108031DEA29E008031DEA29C3
:1003D000F7010B2AE21BF4290310DF0DE00DE10DFC
:1003E000E20DF70BEA29122ADD1FF829E2170B2A82
:1003F000E2130B2A5808F7005908E2005A08E100F6
:100400005B08E0000B2A5408F7005508E200560884
:10041000E1005708E0006208F8006108F900600890
:10042000FA004A2AF701F801F901FA014A2ADF0124
:10043000E009E109E209DF09DF0A031D252AE00AD4
:10044000031D252AE10A0319E20A5E183329DE1882
:1004500075295E19AB29DA290008E007031C362A42
:10046000E10A031D362AE20A03195C14840300081A
:10047000E107031C3E2AE20A03195C148403000806
:10048000801F803AE20703185C145E1A3A29DE1ACC
:100490007C29B229080041080319102BCD0045081A
:1004A0000319102BCD02031C5A2A7F30CD070318E5
:1004B000102B602A8130CD02031C102B0319102B46
:1004C0004D08F700F801F901FA01CC014208CB0010
:1004D000CB174308CA004408C9001930CD004808AA
:1004E000C9020318832A0130CA020318832ACB02E7
:1004F0000318832ACC020318832ACC0ACB0ACA0A1F
:100500004808C907B52A4708CA0203189E2A0130BD
:10051000CB0203189E2ACC0203189E2ACC0ACB0ACF
:100520004708CA074808C907031CB52ACA0A031D99
:10053000B52ACB0A031DB52ACC0AB52A460880384D
:10054000CB020318B42A0130CC020318B42ACC0A17
:1005500046088038CB074708CA07031C922ACB0AF3
:10056000031D922ACC0A922A7A14CD0BB82AC32AE8
:100570000310C90DCA0DCB0DCC0D0310FA0DF90DEA
:10058000F80DCE0D6F2A4E1CCB2A0310F80CF90C77
:10059000FA0CCE0CCE2AF7030319102BCE1BF72A28
:1005A0000310C90DCA0DCB0DCC0D4808C9020318A4
:1005B000E32A0130CA020318E32ACB020318E32A14
:1005C000CC02031C062B4708CA020318EE2A01308E
:1005D000CB020318EE2ACC02031C062B46088038F7
:1005E000CB020318F72A0130CC02031C062BFA0AAF
:1005F000031D062BF90A031D062BF80A031D062B03
:10060000F70A0319102BF80CF90CFA0C4208CD006C
:100610004608CD06CD1F0E2BF817142BF813142BFC
:10062000F701F801F901FA0108005108D80055084E
:10063000D806D81F202B03110310D11B0314532BF2
:100640005108D8005408D9005008D90203192E2B9C
:10065000D81F532B0308013A8300532B5508D900A8
:100660005108D90203193A2BD81F532B0308013A1A
:100670008300532B5608D9005208D9020319462B80
:10068000D81F532B0308013A8300532B5708D90076
:100690005308D9020319522BD81F532B0308013AD0
:1006A0008300532B031008008E30F7005008F70228
:1006B0005108F9005208F800F917F70803196B2BD5
:1006C0000310F908031D672BF80803196B2BF90CAD
:1006D000F80CF70B602BD11F722BF809F909F80AF7
:1006E0000319F90A08008E30F7005508F80054087D
:1006F000F900FA01F808031D872B7908F800F901C1
:100700000830F702F808031D872BF7018F2B031021
:10071000F81B8E2BF90DF80DF703872BF813080043
:1007200050080319002CD80054080319002CD807CE
:100730000318A12B7F30D802031C002C0319002CB6
:10074000A52B8130D8070318002C5808F700F801B2
:10075000F901FA015108DC00DC175208DB005308EC
:10076000DA001830D800D9015A1CCE2B5708FA07E6
:10077000031CC02BF90A031DC02BF80A0319D91753
:100780005608F907031CC72BF80A0319D91755088F
:10079000D200D2175208F8070318D917D90DF80C50
:1007A000F90CFA0CDC0CDB0CDA0C0310D80BB32BB5
:1007B0000130F7070318002CF81BE52BDC0DFA0DB0
:1007C000F90DF80DF7030319002CDC1FF62BFA0ABC
:1007D000031DF62BF90A031DF62BF80A031DF62B51
:1007E000F80CF90CFA0CF70A0319002C5108D9007F
:1007F0005508D906D91FFE2BF817042CF813042C22
:10080000F701F801F901FA0108004F104408C80087
:100810004308C7004208C6004108C5004408D30089
:100820004308D2004208D1004108D000D701D601C8
:10083000D501D4011523031C212C4F144608803AFE
:10084000C6004808D3004708D2004608D100450832
:10085000D000D701D601D5018E30D400152303185E
:10086000332C031D4A2C4808D3004708D200460801
:10087000D1004508D00054237908D5007808D40069
:1008800073237A08CC007908CB007808CA0077086F
:10089000C900072D4808D3004708D2004608D100F8
:1008A0004508D0008030D7009630D6001830D500EB
:1008B0009630D4001523031CFF2C4808D3004708AA
:1008C000D2004608D1004508D000D701D601D50195
:1008D0007030D40090237A08D3007908D2007808C9
:1008E000D1007708D00054237908CE007808CD00D5
:1008F0004808D3004708D2004608D1004508D00078
:10090000D701D601D5017030D40090237A08D300E6
:100910007908D2007808D1007708D0004E08D500B9
:100920004D08D400732383145308D7005208D6000F
:100930005108D5005008D4007A08DB007908DA00A5
:100940007808D9007708D8000A21D301D201D10153
:100950008E30D0007A08D7007908D6007808D50004
:100960007708D40090237A08C8007908C70078086F
:10097000C6007708C5004E08D5004D08D400732383
:10098000D301D201D1018E30D0007A08D700790886
:10099000D6007808D5007708D40090237A08CC00D8
:1009A0007908CB007808CA007708C9004808D30046
:1009B0004708D2004608D1004508D00054237908E2
:1009C000D5007808D400732383104C08D7004B0857
:1009D000D6004A08D5004908D4007A08DB00790817
:1009E000DA007808D9007708D8000A217A08CC0004
:1009F0007908CB007808CA007708C900072D480895
:100A0000CC004708CB004608CA004508C900480882
:100A1000D3004708D2004608D1004508D00054232F
:100A20007908D5007808D400732383144808D700C8
:100A30004708D6004608D5004508D4007A08DB00F0
:100A40007908DA007808D9007708D8000A217A08EE
:100A5000C8007908C7007808C6007708C5004F1C91
:100A6000342D4A08803ACA004808D3004708D2000B
:100A70004608D1004508D000D701D601D501D401E0
:100A8000152303195C2D4F1C5C2D83144C08D700D3
:100A90004B08D6004A08D5004908D400DB01DA012A
:100AA000D9017F30D8000A217A08CC007908CB0020
:100AB0007808CA007708C9004408D3004308D20068
:100AC0004208D1004108D000D701D601D501D40198
:100AD0001523031D6F2DCC01CB01CA01C9014908A3
:100AE000F7004A08F8004B08F9004C08FA00080023
:100AF0003D08B63CBD00FA013E08C100BE17031018
:100B0000BE0CBF0CC00CFA0CF90CF80CF70CBD0BAA
:100B10007F2DC11F962DF709F809F909FA09F70A7F
:100B20000319F80A0319F90A0319FA0A08004830E8
:100B30008400831300080319AA2D0630F800F7017A
:100B4000F70BA02DF80B9F2D7B30F700F70BA62D90
:100B5000800B9D2D080039153C103C08831687003A
:100B6000831207103808C2003708C1004008C600C9
:100B70003F08C5003E08C4003D08C300FF30C3075E
:100B8000031CC407031CC507031CC607C308031DB9
:100B9000D22DC408031DD22DC508031DD22DC608B1
:100BA0000319EA2D41083702031DDA2D42083802E5
:100BB0000319E92D4008C6003F08C5003E08C400DF
:100BC0003D08C3003808C2003708C1001E30C80005
:100BD0009725BE2DB801B7013C103C08831687004D
:100BE000831207140C30C700FA30C8009725C70BD2
:100BF000F42D83168C14831239118A150A12FB29DD
:100C00008316881083128810391439110800391599
:100C10008316081083120810831688108312881018
:100C200008008316081083120810391139100800C3
:100C3000B81B212EB808031D232E3708C83C031CFF
:100C4000232E0026182E0726B81B282E0726242E12
:100C5000B81F352E3808FE3C0318372EFF3A031D07
:100C6000352E3708373C0318372E1126282E072635
:100C7000B81B412EB808031D432E3708003C031C47
:100C8000432E0726382EB81B4F2E3808013C031C74
:100C9000512E031D4F2E3708903C031C512E002669
:100CA000432E0726B81B562E0726522EB81F632E3A
:100CB0003808FD3C0318652EFF3A031D632E3708E4
:100CC0006F3C0318652E1126562E0726B81B6F2E73
:100CD000B808031D712E3708003C031C712E07262F
:100CE000662EB81B7D2E3808033C031C7F2E031D87
:100CF0007D2E3708203C031C7F2E0026712E0726F0
:100D0000B81B842E0726802EB81F912E3808FB3C76
:100D10000318932EFF3A031D912E3708DF3C03186A
:100D2000932E1126842E0726B81B9D2EB808031D6E
:100D30009F2E3708003C031C9F2E0726942EB81BBD
:100D4000AB2E3808043C031CAD2E031DAB2E370818
:100D5000B03C031CAD2E00269F2E0726B9108A1525
:100D60000A12062AB81BC12E3808003C0318C12EEF
:100D7000FF3A031DBF2E37088F3C0318C12E0726EC
:100D8000B22EB81FCE2E3808FB3C0318D02EFF3AE7
:100D9000031DCE2E3708DF3C0318D02E1126C12E9E
:100DA0000726B81FDF2E3808FE3C031CDF2E031D6C
:100DB000DD2E3708703C031CDF2E0726D12EB81B12
:100DC000EB2E3808033C031CED2E031DEB2E3708D9
:100DD000203C031CED2E0026DF2E07268A150A1262
:020DE000132AD4
:1010000003081F398300AA01A901A801A701AE01A5
:10101000AD01AC01AB01B201B101B001AF01B6014C
:10102000B501B401B301B801B7013914B9143915C8
:10103000BB01BA01FF30BC00831603170908C03991
:10104000890003131F129F120030031788008312B8
:1010500087018801890183138316031307158714F9
:1010600006148712881108110710881008108816B6
:1010700008178614061586150616861683120608A6
:10108000303903194D28103A03195328303A0319FF
:101090005928103A03195F286428AA01A901A80158
:1010A0000130A7006428AA01A901A8010230A70005
:1010B0006428AA01A901A8010330A7006428AA0195
:1010C000A901A8010430A70006080E3903197E28DB
:1010D000023A03198428063A03198A28023A0319A6
:1010E00090280E3A03199628023A03199C28063ACA
:1010F0000319A228023A0319A828AD28AE01AD01B0
:10110000AC010230AB00AD28AE01AD01AC01033043
:10111000AB00AD28AE01AD01AC010430AB00AD2891
:10112000AE01AD01AC010530AB00AD28AE01AD01A3
:10113000AC010630AB00AD28AE01AD01AC0107300B
:10114000AB00AD28AE01AD01AC010830AB00AD285D
:10115000AE01AD01AC010930AB00080860390319DC
:10116000BB28203A0319C028603A0319C528203A41
:101170000319CA28CE280730BB00D030BA00CE28C9
:101180000930BB006030BA00CE280A30BB00F03016
:10119000BA00CE280C30BB008030BA002A08C0004C
:1011A0002908BF002808BE002708BD008A11EF20CB
:1011B0008A1583141730D700B730D6005130D500C8
:1011C0008230D4007A08DB007908DA007808D90088
:1011D0007708D8008A110A218A157A08C000790890
:1011E000BF007808BE007708BD004008C4003F0873
:1011F000C3003E08C2003D08C1001730C800B73028
:10120000C7005130C6007A30C5008A114B228A15BA
:101210007A08C0007908BF007808BE007708BD00D2
:101220004008C4003F08C3003E08C2003D08C1009A
:101230008A1105248A157A08C0007908BF00780849
:10124000BE007708BD008A1178258A157A08C0008B
:101250007908BF007808BE007708BD0001303D0264
:10126000AF003E08B0000030031C0130B0023F0860
:10127000B1000030031C0130B1024008B200003060
:10128000031C0130B2022E08C0002D08BF002C083C
:10129000BE002B08BD008A11EF208A158314173079
:1012A000D700B730D6005130D5008230D4007A084C
:1012B000DB007908DA007808D9007708D8008A11AD
:1012C0000A218A157A08C0007908BF007808BE0094
:1012D0007708BD004008C4003F08C3003E08C200B4
:1012E0003D08C1001730C800B730C7005130C600F4
:1012F0007A30C5008A114B228A157A08C000790815
:10130000BF007808BE007708BD004008C4003F0851
:10131000C3003E08C2003D08C1008A1105248A1599
:101320007A08C0007908BF007808BE007708BD00C1
:101330008A1178258A157A08C0007908BF007808D4
:10134000BE007708BD0001303D02B3003E08B40086
:101350000030031C0130B4023F08B5000030031C0C
:101360000130B5024008B6000030031C0130B6025F
:1013700083160811831208118316881183128811AD
:10138000BC123C0883168700831287128B100B1641
:10139000831601130108C0390738810083128B16A8
:1013A0003C153C0883168700831297010430970090
:1013B00083169B019C0101309D0005308312900033
:1013C00083160C157830F800063883129200FF302F
:1013D0008316920083129101C0308B04831608118A
:1013E00083120815C0011630BF00E330BE00603024
:1013F000BD008A11AB2D8A158316081183120811BE
:1014000083168811831288158A11182E8A1583165F
:10141000881183128811BC123C088316870083123E
:0C14200087168A11B22E8A15112A63006B
:04400E00E22CFF3F62
:00000001FF
;PIC16F887
;CRC=A4FE  CREATED="23-Apr-20 00:31"
