:1000000006308A00452E0000FF00030E8301A10088
:100010000A08A0008A010408A2007708A300780853
:10002000A4007908A5007A08A600831383120B1E8A
:100030001B288B1836288C308400001D21280C19B1
:1000400039288B1E25280B193C28220884002308F8
:10005000F7002408F8002508F9002608FA0020080F
:100060008A00210E8300FF0E7F0E09008A110A12FA
:100070003F288A110A1273288A110A125928481334
:1000800048088316870083120713C813480883168D
:10009000870083128713C71C502839088100522813
:1000A0003D0881000B118B168B108B108A110A12E0
:1000B0002528471C642847196428481348088316D4
:1000C0008700831207176E2847186E2847196E2875
:1000D000C813480883168700831287178B120B11E9
:1000E0008A110A122528071C7E280130C10703182F
:1000F000C20A0319C30A0319C40A8628FF30C107BC
:10010000031CC207031CC307031CC4070C118A117C
:100110000A12252880308318E706EC01ED016308F8
:10012000EB006708EB06620803197A29EA00F7007A
:10013000660803198329EA0203191F29031CDD2815
:100140006708F000F0176808EF006908EE00ED019D
:100150000310F00CEF0CEE0CED0CEA0BA728EB1FD4
:10016000B4286C1497296C106A106C1665308400E2
:100170008313AC296C12EB1BC7286A1CD228F00C25
:10018000EF0CEE0CED0CF70A03199229D228F01BA4
:10019000D5280310ED0DEE0DEF0DF00DF70303194B
:1001A0009229C7286C173F296C136308EB00EB1FDB
:1001B000DB28F0178B29F0138B296608EA00F7007B
:1001C0006208EA026308F000F0176408EF006508AF
:1001D000EE00ED010310F00CEF0CEE0CED0CEA0B51
:1001E000E928EB1FF628EC149729EC106A10EC169E
:1001F000693084008313AC29EC12EB1B09296A1CBB
:100200001429F00CEF0CEE0CED0CF70A03199229EF
:100210001429F01B17290310ED0DEE0DEF0DF00D55
:10022000F703031992290929EC173F29EC136708F2
:10023000EB00EB1F1D29F0178B29F0138B296708A2
:10024000F000F0176808EF006908EE00EB1F2C299A
:10025000F0136C1597296C11ED016A10653084005C
:100260008313AC29EB1B55296308EB006A1C3F295B
:10027000F00CEF0CEE0CED0CF70A03199229ED1FB0
:100280005029EE0A031D5029EF0A031D5029F00AD8
:10029000031D5029F00CEF0CEE0CF70A03199229FC
:1002A0006C1BD428EC1B162974298030F006F01F33
:1002B0005D2997296708EB006A296308EB00F008BD
:1002C000031D6A29EF08031D6A29EE08031D6A2928
:1002D000F7018B29F01B74290310ED0DEE0DEF0DC6
:1002E000F00DF70B6A299229EB1F7829F0178B295B
:1002F000F0138B296608F7006708F0006808EF0024
:100300006908EE008B296208F7006308F0006408B2
:10031000EF006508EE007008F8006F08F9006E083D
:10032000FA00CA29F701F801F901FA01CA29ED0119
:10033000EE09EF09F009ED09ED0A031DA529EE0A02
:10034000031DA529EF0A0319F00A6C18B328EC184D
:10035000F5286C192B295A290008EE07031CB62929
:10036000EF0A031DB629F00A03196A148403000872
:10037000EF07031CBE29F00A03196A14840300085E
:10038000801F803AF00703186A146C1ABA28EC1A16
:10039000FC28322908004F080319902ADB00530873
:1003A0000319902ADB02031CDA297F30DB070318CC
:1003B000902AE0298130DB02031C902A0319902A3D
:1003C0005B08F700F801F901FA01DA015008D900D9
:1003D000D9175108D8005208D7001930DB00560849
:1003E000D7020318032A0130D8020318032AD902BE
:1003F0000318032ADA020318032ADA0AD90AD80AE8
:100400005608D707352A5508D80203181E2A013086
:10041000D90203181E2ADA0203181E2ADA0AD90A98
:100420005508D8075608D707031C352AD80A031DD4
:10043000352AD90A031D352ADA0A352A54088038A4
:10044000D9020318342A0130DA020318342ADA0AEE
:1004500054088038D9075508D807031C122AD90A2E
:10046000031D122ADA0A122A7A14DB0B382A432ACD
:100470000310D70DD80DD90DDA0D0310FA0DF90DB3
:10048000F80DDC0DEF295C1C4B2A0310F80CF90C5D
:10049000FA0CDC0C4E2AF7030319902ADC1B772A8E
:1004A0000310D70DD80DD90DDA0D5608D702031851
:1004B000632A0130D8020318632AD9020318632A79
:1004C000DA02031C862A5508D80203186E2A013066
:1004D000D90203186E2ADA02031C862A54088038CF
:1004E000D9020318772A0130DA02031C862AFA0A95
:1004F000031D862AF90A031D862AF80A031D862A87
:10050000F70A0319902AF80CF90CFA0C5008DB00D2
:100510005408DB06DB1F8E2AF817942AF813942A56
:10052000F701F801F901FA0108005F08E600630825
:10053000E606E61FA02A03110310DF1B0314D32ACB
:100540005F08E6006208E7005E08E7020319AE2ACA
:10055000E61FD32A0308013A8300D32A6308E70081
:100560005F08E7020319BA2AE61FD32A0308013AF3
:100570008300D32A6408E7006008E7020319C62A4B
:10058000E61FD32A0308013A8300D32A6508E7004F
:100590006108E7020319D22AE61FD32A0308013AA9
:1005A0008300D32A031008008E30F7005E08F7029C
:1005B0005F08F9006008F800F917F7080319EB2A3B
:1005C0000310F908031DE72AF8080319EB2AF90CB0
:1005D000F80CF70BE02ADF1FF22AF809F909F80AEC
:1005E0000319F90A08008E30F7006308F800620862
:1005F000F900FA01F808031D072B7908F800F90142
:100600000830F702F808031D072BF7010F2B031022
:10061000F81B0E2BF90DF80DF703072BF813080044
:100620005E080319802BE60062080319802BE60799
:100630000318212B7F30E602031C802B0319802B2B
:10064000252B8130E6070318802B6608F700F80198
:10065000F901FA015F08EA00EA176008E900610899
:10066000E8001830E600E701681C4E2B6508FA0721
:10067000031C402BF90A031D402BF80A0319E71746
:100680006408F907031C472BF80A0319E7176308E6
:10069000E000E0176008F8070318E717E70DF80C0B
:1006A000F90CFA0CEA0CE90CE80C0310E60B332BFE
:1006B0000130F7070318802BF81B652BEA0DFA0DA4
:1006C000F90DF80DF7030319802BEA1F762BFA0AB0
:1006D000031D762BF90A031D762BF80A031D762BD2
:1006E000F80CF90CFA0CF70A0319802B5F08E700E5
:1006F0006308E706E71F7E2BF817842BF813842B7B
:10070000F701F801F901FA0108005D105208D6005E
:100710005108D5005008D4004F08D3005208E1001A
:100720005108E0005008DF004F08DE00E501E40159
:10073000E301E2019522031CA12B5D145408803AC9
:10074000D4005608E1005508E0005408DF005308C3
:10075000DE00E501E401E3018E30E200952203189A
:10076000B32B031DCA2B5608E1005508E0005408BE
:10077000DF005308DE00D4227908E3007808E200A5
:10078000F3227A08DA007908D9007808D8007708C7
:10079000D700872C5608E1005508E0005408DF0018
:1007A0005308DE008030E5009630E4001830E300A6
:1007B0009630E2009522031C7F2C5608E100550874
:1007C000E0005408DF005308DE00E501E401E30126
:1007D0007030E20010237A08E1007908E000780820
:1007E000DF007708DE00D4227908DC007808DB001F
:1007F0005608E1005508E0005408DF005308DE0009
:10080000E501E401E3017030E20010237A08E10021
:100810007908E0007808DF007708DE005C08E30074
:100820005B08E200F32283146108E5006008E4003D
:100830005F08E3005E08E2007A08E9007908E80052
:100840007808E7007708E6008A20E101E001DF018F
:100850008E30DE007A08E5007908E4007808E300CD
:100860007708E20010237A08D6007908D5007808C6
:10087000D4007708D3005C08E3005B08E200F322B1
:10088000E101E001DF018E30DE007A08E500790841
:10089000E4007808E3007708E20010237A08DA0021
:1008A0007908D9007808D8007708D7005608E10001
:1008B0005508E0005408DF005308DE00D422790810
:1008C000E3007808E200F32283105A08E500590893
:1008D000E4005808E3005708E2007A08E9007908C4
:1008E000E8007808E7007708E6008A207A08DA004E
:1008F0007908D9007808D8007708D700872C5608DF
:10090000DA005508D9005408D8005308D700560813
:10091000E1005508E0005408DF005308DE00D4224F
:100920007908E3007808E200F32283145608E50012
:100930005508E4005408E3005308E2007A08E9008F
:100940007908E8007808E7007708E6008A207A0846
:10095000D6007908D5007808D4007708D3005D1C4C
:10096000B42C5808803AD8005608E1005508E00039
:100970005408DF005308DE00E501E401E301E20171
:1009800095220319DC2C5D1CDC2C83145A08E5002D
:100990005908E4005808E3005708E200E901E801BB
:1009A000E7017F30E6008A207A08DA007908D9006A
:1009B0007808D8007708D7005208E1005108E00015
:1009C0005008DF004F08DE00E501E401E301E20129
:1009D0009522031DEF2CDA01D901D801D701570860
:1009E000F7005808F8005908F9005A08FA000800FA
:1009F0004B08B63CCB00FA014C08CF00CC170310D3
:100A0000CC0CCD0CCE0CFA0CF90CF80CF70CCB0B73
:100A1000FF2CCF1F162DF709F809F909FA09F70A73
:100A20000319F80A0319F90A0319FA0A0800C81386
:100A3000480883168700831287134714471108005C
:100A40004715481348088316870083120713C813F5
:100A50004808831687008312871308004813480844
:100A60008316870083120713471147100800C41B21
:100A7000492DC408031D4B2DC308031D4B2D4208EF
:100A8000013C031C4B2D031D492D4108903C031CC8
:100A90004B2D1725372D2025C41B502D20254C2DDF
:100AA000C41F6B2D4408FE3C03186D2DFF3A031D37
:100AB0006B2D4308FE3C03186D2DFF3A031D6B2D73
:100AC0004208FD3C03186D2DFF3A031D6B2D4108B4
:100AD0006F3C03186D2D2E25502D2025C41B7D2D18
:100AE000C408031D7F2DC308031D7F2DC208031DED
:100AF0007F2D4108003C031C7F2D20256E2DC41B3B
:100B0000912DC408031D932DC308031D932D420886
:100B1000033C031C932D031D912D4108203C031C15
:100B2000932D17257F2D2025C41B982D2025942D2E
:100B3000C41FB32D4408FE3C0318B52DFF3A031D16
:100B4000B32D4308FE3C0318B52DFF3A031DB32D0A
:100B50004208FB3C0318B52DFF3A031DB32D410895
:100B6000DF3C0318B52D2E25982D2025C41BC52D3F
:100B7000C408031DC72DC308031DC72DC208031DCC
:100B8000C72D4108003C031CC72D2025B62DC41BD2
:100B9000D92DC408031DDB2DC308031DDB2D42081E
:100BA000043C031CDB2D031DD92D4108B03C031C64
:100BB000DB2D1725C72D2025C7108A110A12682F93
:100BC000C41BF52DC408031DF32DC308031DF32D0D
:100BD0004208003C0318F52DFF3A031DF32D410890
:100BE0008F3C0318F52D2025E02DC41F102E44083E
:100BF000FE3C0318122EFF3A031D102E4308FE3C44
:100C00000318122EFF3A031D102E4208FB3C031856
:100C1000122EFF3A031D102E4108DF3C0318122E3E
:100C20002E25F52D2025C41F2D2E4408FF3C031C26
:100C30002D2E031D2B2E4308FF3C031C2D2E031DC0
:100C40002B2E4208FE3C031C2D2E031D2B2E41088B
:100C5000703C031C2D2E2025132EC41B3F2EC408D0
:100C6000031D412EC308031D412E4208033C031CF3
:100C7000412E031D3F2E4108203C031C412E172509
:100C80002D2E20258A110A12692F03081F3983008F
:100C9000B401B301B2017F30B100B801B7014030F7
:100CA000B6008130B50083141730E500B730E4009A
:100CB0005130E3008230E2003408E9003308E800F4
:100CC0003208E7003108E6008A207A08CC0079086B
:100CD000CB007808CA007708C9007A08D2007908E2
:100CE000D1007808D0007708CF001730D600B73091
:100CF000D5005130D4007A30D300CB217A08CC0013
:100D00007908CB007808CA007708C9007A08D200B1
:100D10007908D1007808D0007708CF0085237A08B9
:100D2000CE007908CD007808CC007708CB00F824F5
:100D30007A08CC007908CB007808CA000130770225
:100D4000B9007808BA000030031C0130BA027908F3
:100D5000BB000030031C0130BB027A08BC0000302D
:100D6000031C0130BC02CA010408C9004A10831BDD
:100D70004A1483141730E500B730E4005130E30023
:100D80008230E2003808E9003708E8003608E7005A
:100D90003508E6008A204908840083134A1883171F
:100DA0007A08CE007908CD007808CC007708CB000F
:100DB0007A08D2007908D1007808D0007708CF00EF
:100DC0001730D600B730D5005130D4007A30D30078
:100DD000CB217A08CE007908CD007808CC007708BE
:100DE000CB007A08D2007908D1007808D0007708C3
:100DF000CF0085237A08CE007908CD007808CC0092
:100E00007708CB00F82401307702BD007808BE00D7
:100E10000030031C0130BE027908BF000030031C03
:100E20000130BF027A08C0000030031C0130C0024C
:100E3000C401C301C201C101C501C6014714C714E1
:100E40004711FF30C80083161F149F141F159F11F0
:100E500007309C00831330308312A7003130A80084
:100E60003230A9003330AA003430AB003530AC004A
:100E70003630AD003730AE003830AF003930B0001A
:100E80008316071507140614871087130713831298
:100E9000C810480883168700831287148B100B161E
:100EA000831601138312481548088316870083129E
:100EB0009701043097008530900083160C150108C7
:100EC000C0390738810083128B16C0308B04372D50
:060ED000E02D682F630015
:02400E00323F3F
:00000001FF
;PIC16F877A
;CRC=23CF  CREATED="07-Apr-20 09:12"
