:100000000A308A00D72A0000FF00030E8301A100F6
:100010000A08A0008A010408A2007708A300780853
:10002000A4007908A5007A08A600831383120B1E8A
:100030001B288B183C288C308400801C21288C18AD
:100040003F288C308400001D27280C1942288B1E65
:100050002B280B194528220884002308F7002408C0
:10006000F8002508F9002608FA0020088A00210E69
:100070008300FF0E7F0E09008A110A1248288A1594
:100080000A1200288A110A12782D8A110A125E2893
:1000900083160810831208108316881083128810A4
:1000A000BC1C5528300881005728340881000B11EA
:1000B0008B168B108B108A110A122B283C1C672878
:1000C0003C19672883160810831208146F283C18FF
:1000D0006F283C196F2883168810831288148B129E
:1000E0000B118A110A122B28B630F700FA01F90118
:1000F000F8016708680469046A04031D8128F70190
:100100008E280310F81B8D28E70DE80DE90DEA0D88
:10011000FA0DF90DF80DF70B8128F813080080305F
:10012000831C95288316B00683128316B501B60189
:100130002C08B4003008B4062B0803198329B30037
:10014000F7002F0803198C29B30203192829031C6F
:10015000E6283008B900B9173108B8003208B700EE
:10016000B6010310B90CB80CB70CB60CB30BB02821
:10017000B41FBD283514A029351033103516AE3004
:1001800084008313B5293512B41BD028331CDB2817
:10019000B90CB80CB70CB60CF70A03199B29DB286D
:1001A000B91BDE280310B60DB70DB80DB90DF70356
:1001B00003199B29D0283517482935132C08B4007A
:1001C000B41FE428B9179429B91394292F08B30050
:1001D000F7002B08B3022C08B900B9172D08B80096
:1001E0002E08B700B6010310B90CB80CB70CB60C4A
:1001F000B30BF228B41FFF28B514A029B510331093
:10020000B516B23084008313B529B512B41B122978
:10021000331C1D29B90CB80CB70CB60CF70A03191E
:100220009B291D29B91B20290310B60DB70DB80D48
:10023000B90DF70303199B291229B5174829B513DE
:100240003008B400B41F2629B9179429B91394298A
:100250003008B900B9173108B8003208B700B41F28
:100260003529B9133515A0293511B6013310AE3033
:1002700084008313B529B41B5E292C08B400331CF9
:100280004829B90CB80CB70CB60CF70A03199B290E
:10029000B61F5929B70A031D5929B80A031D592940
:1002A000B90A031D5929B90CB80CB70CF70A031980
:1002B0009B29351BDD28B51B1F297D298030B906F8
:1002C000B91F6629A0293008B40073292C08B4008E
:1002D000B908031D7329B808031D7329B708031D46
:1002E0007329F7019429B91B7D290310B60DB70DA9
:1002F000B80DB90DF70B73299B29B41F8129B917C4
:100300009429B91394292F08F7003008B90031084F
:10031000B8003208B70094292B08F7002C08B90060
:100320002D08B8002E08B7003908F8003808F90081
:100330003708FA00D329F701F801F901FA01D329A6
:10034000B601B709B809B909B609B60A031DAE293D
:10035000B70A031DAE29B80A0319B90A3518BC2813
:10036000B518FE283519342963290008B707031C7E
:10037000BF29B80A031DBF29B90A0319331484031E
:100380000008B807031CC729B90A031933148403EA
:100390000008801F803AB90703183314351AC328A0
:1003A000B51A05293B29831208006B080319AF2AE7
:1003B0008316A40083126F080319AF2A8316A402C0
:1003C000031CE9297F30A407031CE8298312AF2A04
:1003D000F3298130A4020318EF298312AF2A031DE9
:1003E000F3298312AF2A2408F700F801F901FA0172
:1003F000A30183126C088316A200A21783126D0852
:100400008316A10083126E088316A0001930A40081
:100410007208A00203181C2A0130A10203181C2A2A
:10042000A20203181C2AA30203181C2AA30AA20A68
:10043000A10A7208A0074E2A7108A1020318372AE0
:100440000130A2020318372AA3020318372AA30A8D
:10045000A20A7108A1077208A007031C4E2AA10A6C
:10046000031D4E2AA20A031D4E2AA30A4E2A700813
:100470008038A20203184D2A0130A30203184D2A26
:10048000A30A70088038A2077108A107031C2B2A51
:10049000A20A031D2B2AA30A2B2A7A14A40B512A81
:1004A0005C2A0310A00DA10DA20DA30D0310FA0DDF
:1004B000F90DF80DA50D082A251C642A0310F80C67
:1004C000F90CFA0CA50C682AF70B682A8312AF2ADC
:1004D000A51B912A0310A00DA10DA20DA30D72085A
:1004E000A00203187D2A0130A10203187D2AA2026E
:1004F00003187D2AA302031CA22A7108A102031873
:10050000882A0130A2020318882AA302031CA22A07
:1005100070088038A2020318912A0130A302031C3C
:10052000A22AFA0A031DA22AF90A031DA22AF80A1E
:10053000031DA22AF70A031D9F2A8312AF2AF80C73
:10054000F90CFA0C83126C088316A4007008A40638
:10055000A41FAC2AF817B42AF813B42A8312F7019F
:10056000F801F901FA01831683120800831628089E
:10057000AF002C08AF06AF1FC22A03110310A81B3F
:100580000314F52A2808AF002B08B0002708B00292
:100590000319D02AAF1FF52A0308013A8300F52A70
:1005A0002C08B0002808B0020319DC2AAF1FF52A76
:1005B0000308013A8300F52A2D08B0002908B0028B
:1005C0000319E82AAF1FF52A0308013A8300F52A28
:1005D0002E08B0002A08B0020319F42AAF1FF52A2A
:1005E0000308013A8300F52A0310831208008E30B5
:1005F000F70083162708F7022808F9002908F800F1
:10060000F917F70803190F2B0310F908031D0B2B1B
:10061000F80803190F2BF90CF80CF70B042BA81F83
:10062000162BF809F909F80A0319F90A83120800C8
:100630008E30F70083162C08F8002B08F900FA0119
:10064000F808031D2D2B7908F800F9010830F7028E
:10065000F808031D2D2BF701352B0310F81B342B45
:10066000F90DF80DF7032D2BF813831208008316EC
:1006700027080319A82BAF002B080319A82BAF07D5
:100680000318492B7F30AF02031CA82B0319A82B9A
:100690004D2B8130AF070318A82B2F08F700F80166
:1006A000F901FA012808B300B3172908B2002A0893
:1006B000B1001830AF00B001311C762B2E08FA07BC
:1006C000031C682BF90A031D682BF80A0319B017DD
:1006D0002D08F907031C6F2BF80A0319B0172C0813
:1006E000A900A9172908F8070318B017B00DF80CCE
:1006F000F90CFA0CB30CB20CB10C0310AF0B5B2B62
:100700000130F7070318A82BF81B8D2BB30DFA0D3A
:10071000F90DF80DF7030319A82BB31F9E2BFA0A46
:10072000031D9E2BF90A031D9E2BF80A031D9E2B09
:10073000F80CF90CFA0CF70A0319A82B2808B000DA
:100740002C08B006B01FA62BF817AC2BF813AC2B57
:10075000F701F801F901FA01831208008316261047
:100760007608FE007508FD007408FC007308FB00A5
:100770007608AA007508A9007408A8007308A700E5
:10078000AE01AD01AC01AB018312B622031CCE2B2E
:10079000831626147C08803AFC0083127E08831698
:1007A000AA007D08A9007C08A8007B08A700AE016C
:1007B000AD01AC018E30AB008312B6220318E22BE0
:1007C000031DFF2B7E088316AA007D08A9007C0864
:1007D000A8007B08A7008312F72279088316AC00D3
:1007E0007808AB00831218237A088316A3007908CF
:1007F000A2007808A1007708A000D72C83127E08F9
:100800008316AA007D08A9007C08A8007B08A70021
:100810008030AE009630AD001830AC009630AB00A2
:100820008312B622031CCE2C7E088316AA007D08F4
:10083000A9007C08A8007B08A700AE01AD01AC01AF
:100840007030AB00831237237A088316AA00790828
:10085000A9007808A8007708A7008312F722790872
:100860008316A5007808A4007E08AA007D08A900C8
:100870007C08A8007B08A700AE01AD01AC01703078
:10088000AB00831237237A088316AA007908A900DF
:100890007808A8007708A7002508AC002408AB005A
:1008A00083121823831483162A08AE002908AD008A
:1008B0002808AC002708AB007A08B2007908B1001C
:1008C0007808B0007708AF0083128F208316AA0142
:1008D000A901A8018E30A7007A08AE007908AD0002
:1008E0007808AC007708AB00831237237A08FE0043
:1008F0007908FD007808FC007708FB0083162508BE
:10090000AC002408AB00831218238316AA01A901A6
:10091000A8018E30A7007A08AE007908AD007808EB
:10092000AC007708AB00831237237A088316A30044
:100930007908A2007808A1007708A0007E08AA0024
:100940007D08A9007C08A8007B08A7008312F72275
:1009500079088316AC007808AB0083121823831043
:1009600083162308AE002208AD002108AC00200841
:10097000AB007A08B2007908B1007808B0007708B7
:10098000AF0083128F207A088316A3007908A20093
:100990007808A1007708A000D72C83127E08831660
:1009A000A3007D08A2007C08A1007B08A0007E08AF
:1009B000AA007D08A9007C08A8007B08A700831274
:1009C000F72279088316AC007808AB00831218234D
:1009D00083147E088316AE007D08AD007C08AC0051
:1009E0007B08AB007A08B2007908B1007808B00043
:1009F0007708AF0083128F207A08FE007908FD0087
:100A00007808FC007708FB008316261C0A2D2108B5
:100A1000803AA1007E08AA007D08A9007C08A800F1
:100A20007B08A700AE01AD01AC01AB018312B62279
:100A30000319372D8316261C362D83142308AE0088
:100A40002208AD002108AC002008AB00B201B101C2
:100A5000B0017F30AF0083128F207A088316A30085
:100A60007908A2007808A1007708A0008312760810
:100A70008316AA007508A9007408A8007308A700C7
:100A8000AE01AD01AC01AB018312B622031D4E2DA8
:100A90008316A301A201A101A001831283162008DD
:100AA000F7002108F8002208F9002308FA00831251
:100AB00008006708B63CE700FA016808EB00E81791
:100AC0000310E80CE90CEA0CFA0CF90CF80CF70C22
:100AD000E70B602DEB1F772DF709F809F909FA09E3
:100AE000F70A0319F80A0319F90A0319FA0A0800A0
:100AF000871C7E2DB80A0319B90A822D38080319FC
:100B0000B903B8030C118A110A122B28493084004A
:100B1000831300080319992D0630F800F701F70B2D
:100B20008F2DF80B8E2D7B30F700F70B952D800B5A
:100B30008C2D08003C153D103D088316870083125C
:100B400007103908C3003808C2004108C700400830
:100B5000C6003F08C5003E08C400FF30C407031CA0
:100B6000C507031CC607031CC707C408031DC12D06
:100B7000C508031DC12DC608031DC12DC7080319D3
:100B8000D92D42083802031DC92D43083902031923
:100B9000D82D4108C7004008C6003F08C5003E08E0
:100BA000C4003908C3003808C2001E30C9008625B9
:100BB000AD2DB901B8013D103D08831687008312A1
:100BC00007140C30C800FA30C9008625C80BE32D85
:100BD00083168C1483123C118A150A12712C831609
:100BE0008810831288103C143C1108003C158316B1
:100BF00008108312081083168810831288100800CA
:100C000083160810831208103C113C100800B91B11
:100C1000102EB908031D122E3808C83C031C122ED2
:100C2000EF25072EF625B91B172EF625132EB91F13
:100C3000242E3908FE3C0318262EFF3A031D242ECD
:100C40003808373C0318262E0026172EF625B91B28
:100C5000302EB908031D322E3808003C031C322EFA
:100C6000F625272EB91B3E2E3908013C031C402EC9
:100C7000031D3E2E3808903C031C402EEF25322EDB
:100C8000F625B91B452EF625412EB91F522E3908DF
:100C9000FD3C0318542EFF3A031D522E38086F3CBA
:100CA0000318542E0026452EF625B91B5E2EB908D2
:100CB000031D602E3808003C031C602EF625552EBF
:100CC000B91B6C2E3908033C031C6E2E031D6C2EC1
:100CD0003808203C031C6E2EEF25602EF625B91B2C
:100CE000732EF6256F2EB91F802E3908FB3C031892
:100CF000822EFF3A031D802E3808DF3C0318822E17
:100D00000026732EF625B91B8C2EB908031D8E2ED6
:100D10003808003C031C8E2EF625832EB91B9A2E14
:100D20003908043C031C9C2E031D9A2E3808B03C45
:100D3000031C9C2EEF258E2EF625BC108A150A1258
:100D40007C2CB91BB02E3908003C0318B02EFF3A9A
:100D5000031DAE2E38088F3C0318B02EF625A12EA9
:100D6000B91FBD2E3908FB3C0318BF2EFF3A031DE7
:100D7000BD2E3808DF3C0318BF2E0026B02EF62506
:100D8000B91FCE2E3908FE3C031CCE2E031DCC2EDF
:100D90003808703C031CCE2EF625C02EB91BDA2E67
:100DA0003908033C031CDC2E031DDA2E3808203CD6
:100DB000031CDC2EEF25CE2EF6258A150A12892C6F
:101000003A080319BB03BA033A083B04031DD32A69
:101010003C1C2228B91B21283908053C031821282B
:10102000FF3A031D172838083F3C031821283D10BC
:101030003D088316870083120710831686128312D9
:1010400086163828B91F38283908F93C031C382877
:10105000031D2E283808C03C031C38283D103D08CD
:101060008316870083120710831686128312861652
:1010700083168614831286187629BC1CCC28AB08EC
:10108000031DCB28AA08031DCB28A908031DCB28C4
:101090002808083C031CCB280130A8070318A90A1C
:1010A0000319AA0A0319AB0A2B08EA002A08E90067
:1010B0002908E8002808E7008A1174208A1583149B
:1010C00017308316AE00B730AD005130AC0082301F
:1010D000AB007A08B2007908B1007808B000770850
:1010E000AF008A1183128F208A157A08EA007908E6
:1010F000E9007808E8007708E7006A08EE00690868
:10110000ED006808EC006708EB001730F200B7301C
:10111000F1005130F0007A30EF008A11D5218A15A4
:101120007A08EA007908E9007808E8007708E7001B
:101130006A08F6006908F5006808F4006708F3001B
:101140008A11AE238A157A08EA007908E90078083E
:10115000E8007708E7008A1159258A157A08EA001D
:101160007908E9007808E8007708E70001306702AD
:10117000B0006808B1000030031C0130B1026908FA
:10118000B2000030031C0130B2026A08B300003024
:10119000031C0130B3027529AF08031D7529AE0881
:1011A000031D7529AD08031D75292C08083C031C77
:1011B00075290130AC070318AD0A0319AE0A0319EB
:1011C000AF0A831603178C18E3280C11831203133C
:1011D0000B08F7008B13013003178D0003132C0845
:1011E00003178C0083168C130C1555308D00AA3014
:1011F0008D008C147708831203138B042F08EA00E8
:101200002E08E9002D08E8002C08E7008A11742058
:101210008A15831417308316AE00B730AD005130F5
:10122000AC008230AB007A08B2007908B1007808CF
:10123000B0007708AF008A1183128F208A157A08D0
:10124000EA007908E9007808E8007708E7006A080A
:10125000EE006908ED006808EC006708EB00173045
:10126000F200B730F1005130F0007A30EF008A110F
:10127000D5218A157A08EA007908E9007808E8009B
:101280007708E7006A08F6006908F5006808F400C6
:101290006708F3008A11AE238A157A08EA007908F4
:1012A000E9007808E8007708E7008A1159258A15CF
:1012B0007A08EA007908E9007808E8007708E7008A
:1012C00001306702B4006808B5000030031C01302B
:1012D000B5026908B6000030031C0130B6026A0886
:1012E000B7000030031C0130B702CF2A8316061660
:1012F0008312061ACF2ABC1C262AAB08031D8A2992
:10130000AA08031D8A29A908031D8A292808013C67
:101310000318252AFF30A807031CA907031CAA07E6
:10132000031CAB07831603178C1894290C11831226
:1013300003130B08F7008B1303178D010313280801
:1013400003178C0083168C130C1555308D00AA30B2
:101350008D008C147708831203138B042B08EA008A
:101360002A08E9002908E8002808E7008A11742003
:101370008A15831417308316AE00B730AD00513094
:10138000AC008230AB007A08B2007908B10078086E
:10139000B0007708AF008A1183128F208A157A086F
:1013A000EA007908E9007808E8007708E7006A08A9
:1013B000EE006908ED006808EC006708EB001730E4
:1013C000F200B730F1005130F0007A30EF008A11AE
:1013D000D5218A157A08EA007908E9007808E8003A
:1013E0007708E7006A08F6006908F5006808F40065
:1013F0006708F3008A11AE238A157A08EA00790893
:10140000E9007808E8007708E7008A1159258A156D
:101410007A08EA007908E9007808E8007708E70028
:1014200001306702B0006808B1000030031C0130D1
:10143000B1026908B2000030031C0130B2026A0830
:10144000B3000030031C0130B302CF2AAF08031DE4
:10145000332AAE08031D332AAD08031D332A2C0896
:10146000013C0318CF2AFF30AC07031CAD07031C57
:10147000AE07031CAF07831603178C183D2A0C1107
:10148000831203130B08F7008B13013003178D0031
:1014900003132C0803178C0083168C130C1555307E
:1014A0008D00AA308D008C147708831203138B04EF
:1014B0002F08EA002E08E9002D08E8002C08E700B4
:1014C0008A1174208A15831417308316AE00B73042
:1014D000AD005130AC008230AB007A08B200790820
:1014E000B1007808B0007708AF008A1183128F200E
:1014F0008A157A08EA007908E9007808E800770890
:10150000E7006A08EE006908ED006808EC0067086B
:10151000EB001730F200B730F1005130F0007A30B4
:10152000EF008A11D5218A157A08EA007908E900C6
:101530007808E8007708E7006A08F6006908F5000F
:101540006808F4006708F3008A11AE238A157A0848
:10155000EA007908E9007808E8007708E7008A11CE
:1015600059258A157A08EA007908E9007808E80020
:101570007708E70001306702B4006808B500003062
:10158000031C0130B5026908B6000030031C0130AD
:10159000B6026A08B7000030031C0130B7021D30E4
:1015A000BB00EC30BA008C108A110A122B280308F9
:1015B0001F398300AB01AA01A9010130A800AF01C6
:1015C000AE01AD010630AC00A7018B1BA7178B1332
:1015D0002B08EA002A08E9002908E8002808E700A3
:1015E0008A1174208A15A71B8B178314A7018B1BE4
:1015F000A7178B1317308316AE00B730AD005130EC
:10160000AC008230AB007A08B2007908B1007808EB
:10161000B0007708AF008A1183128F208A15A71BAC
:101620008B177A08C1007908C0007808BF007708D6
:10163000BE00A7018B1BA7178B137A08EE00790851
:10164000ED007808EC007708EB001730F200B730B7
:10165000F1005130F0007A30EF008A11D5218A155F
:10166000A71B8B177A08C1007908C0007808BF0053
:101670007708BE00A7018B1BA7178B137A08F6000B
:101680007908F5007808F4007708F3008A11AE2392
:101690008A15A71B8B17A7018B1BA7178B137A081B
:1016A000EA007908E9007808E8007708E7008A117D
:1016B00059258A15A71B8B177A08C1007908C00025
:1016C0007808BF007708BE0001307702B0007808C4
:1016D000B1000030031C0130B1027908B2000030C3
:1016E000031C0130B2027A08B3000030031C013041
:1016F000B302A7018B1BA7178B132F08EA002E0834
:10170000E9002D08E8002C08E7008A1174208A15EA
:10171000A71B8B17BF010408BE003F10831B3F149B
:101720008314A7018B1BA7178B1317308316AE00EA
:10173000B730AD005130AC008230AB007A08B20057
:101740007908B1007808B0007708AF008A118312D9
:101750008F208A15A71B8B173E08840083133F1820
:1017600083177A08C3007908C2007808C100770897
:10177000C000A7018B1BA7178B137A08EE0079080E
:10178000ED007808EC007708EB001730F200B73076
:10179000F1005130F0007A30EF008A11D5218A151E
:1017A000A71B8B177A08C3007908C2007808C1000C
:1017B0007708C000A7018B1BA7178B137A08F600C8
:1017C0007908F5007808F4007708F3008A11AE2351
:1017D0008A15A71B8B17A7018B1BA7178B137A08DA
:1017E000EA007908E9007808E8007708E7008A113C
:1017F00059258A15A71B8B1701307702B40078088A
:10180000B5000030031C0130B5027908B600003085
:10181000031C0130B6027A08B7000030031C013007
:10182000B702B901B8013C14BC143C15FF30BD002F
:1018300083161F149F141F159F1107309C008313DC
:1018400006168614071587140614861208128712C6
:10185000881108110710881008108612831286124A
:1018600083160811831208118316881183128811B8
:10187000BD123D0883168700831287128B100B164A
:10188000831601130108C0390738810083128B16B3
:101890003D153D0883168700831297010430970099
:1018A0008530900083160C157830F80006388312C6
:1018B0009200FF3083169200831291011D30BB000D
:1018C000EC30BA00C0308B0483160811831208155F
:1018D000C1010F30C0004230BF004030BE008A114D
:1018E0009A2D8A1583160811831208118316881100
:1018F000831288158A11072E8A1583168811831280
:101900008811BD123D0883168700831287168A113D
:08191000A12E8A15872C63004B
:02400E00323F3F
:00000001FF
;PIC16F877A
;CRC=A24F  CREATED="21-Apr-20 05:25"
